{"contracts/TokenSale.sol":{"TokenSale":{"abi":[{"inputs":[{"internalType":"address","name":"tokenAddress","type":"address"}],"stateMutability":"nonpayable","type":"constructor"},{"inputs":[{"internalType":"address","name":"owner","type":"address"}],"name":"OwnableInvalidOwner","type":"error"},{"inputs":[{"internalType":"address","name":"account","type":"address"}],"name":"OwnableUnauthorizedAccount","type":"error"},{"anonymous":false,"inputs":[{"indexed":true,"internalType":"address","name":"previousOwner","type":"address"},{"indexed":true,"internalType":"address","name":"newOwner","type":"address"}],"name":"OwnershipTransferred","type":"event"},{"inputs":[],"name":"DURATION","outputs":[{"internalType":"uint256","name":"","type":"uint256"}],"stateMutability":"view","type":"function"},{"inputs":[],"name":"PCT_FIRST","outputs":[{"internalType":"uint256","name":"","type":"uint256"}],"stateMutability":"view","type":"function"},{"inputs":[],"name":"PCT_MAX","outputs":[{"internalType":"uint256","name":"","type":"uint256"}],"stateMutability":"view","type":"function"},{"inputs":[],"name":"PRICE1","outputs":[{"internalType":"uint256","name":"","type":"uint256"}],"stateMutability":"view","type":"function"},{"inputs":[],"name":"PRICE2","outputs":[{"internalType":"uint256","name":"","type":"uint256"}],"stateMutability":"view","type":"function"},{"inputs":[{"internalType":"uint256","name":"amount","type":"uint256"}],"name":"buy","outputs":[],"stateMutability":"payable","type":"function"},{"inputs":[],"name":"endSale","outputs":[],"stateMutability":"nonpayable","type":"function"},{"inputs":[],"name":"firstLimit","outputs":[{"internalType":"uint256","name":"","type":"uint256"}],"stateMutability":"view","type":"function"},{"inputs":[],"name":"maxLimit","outputs":[{"internalType":"uint256","name":"","type":"uint256"}],"stateMutability":"view","type":"function"},{"inputs":[],"name":"owner","outputs":[{"internalType":"address","name":"","type":"address"}],"stateMutability":"view","type":"function"},{"inputs":[],"name":"renounceOwnership","outputs":[],"stateMutability":"nonpayable","type":"function"},{"inputs":[],"name":"saleStart","outputs":[{"internalType":"uint256","name":"","type":"uint256"}],"stateMutability":"view","type":"function"},{"inputs":[],"name":"token","outputs":[{"internalType":"contract ERC20","name":"","type":"address"}],"stateMutability":"view","type":"function"},{"inputs":[],"name":"tokenDecimals","outputs":[{"internalType":"uint8","name":"","type":"uint8"}],"stateMutability":"view","type":"function"},{"inputs":[],"name":"tokensSold","outputs":[{"internalType":"uint256","name":"","type":"uint256"}],"stateMutability":"view","type":"function"},{"inputs":[],"name":"totalSupply","outputs":[{"internalType":"uint256","name":"","type":"uint256"}],"stateMutability":"view","type":"function"},{"inputs":[{"internalType":"address","name":"newOwner","type":"address"}],"name":"transferOwnership","outputs":[],"stateMutability":"nonpayable","type":"function"}],"evm":{"bytecode":{"linkReferences":{},"object":"61010060405234801561001157600080fd5b506040516119f23803806119f2833981810160405281019061003391906103a5565b33600073ffffffffffffffffffffffffffffffffffffffff168173ffffffffffffffffffffffffffffffffffffffff16036100a65760006040517f1e4fbdf700000000000000000000000000000000000000000000000000000000815260040161009d91906103e1565b60405180910390fd5b6100b58161027e60201b60201c565b5080600160006101000a81548173ffffffffffffffffffffffffffffffffffffffff021916908373ffffffffffffffffffffffffffffffffffffffff16021790555042600381905550600160009054906101000a900473ffffffffffffffffffffffffffffffffffffffff1673ffffffffffffffffffffffffffffffffffffffff166318160ddd6040518163ffffffff1660e01b8152600401602060405180830381865afa15801561016b573d6000803e3d6000fd5b505050506040513d601f19601f8201168201806040525081019061018f9190610432565b60808181525050606460196080516101a7919061048e565b6101b191906104ff565b60a08181525050606460326080516101c9919061048e565b6101d391906104ff565b60c08181525050600160009054906101000a900473ffffffffffffffffffffffffffffffffffffffff1673ffffffffffffffffffffffffffffffffffffffff1663313ce5676040518163ffffffff1660e01b8152600401602060405180830381865afa158015610247573d6000803e3d6000fd5b505050506040513d601f19601f8201168201806040525081019061026b9190610569565b60ff1660e08160ff168152505050610596565b60008060009054906101000a900473ffffffffffffffffffffffffffffffffffffffff169050816000806101000a81548173ffffffffffffffffffffffffffffffffffffffff021916908373ffffffffffffffffffffffffffffffffffffffff1602179055508173ffffffffffffffffffffffffffffffffffffffff168173ffffffffffffffffffffffffffffffffffffffff167f8be0079c531659141344cd1fd0a4f28419497f9722a3daafe3b4186f6b6457e060405160405180910390a35050565b600080fd5b600073ffffffffffffffffffffffffffffffffffffffff82169050919050565b600061037282610347565b9050919050565b61038281610367565b811461038d57600080fd5b50565b60008151905061039f81610379565b92915050565b6000602082840312156103bb576103ba610342565b5b60006103c984828501610390565b91505092915050565b6103db81610367565b82525050565b60006020820190506103f660008301846103d2565b92915050565b6000819050919050565b61040f816103fc565b811461041a57600080fd5b50565b60008151905061042c81610406565b92915050565b60006020828403121561044857610447610342565b5b60006104568482850161041d565b91505092915050565b7f4e487b7100000000000000000000000000000000000000000000000000000000600052601160045260246000fd5b6000610499826103fc565b91506104a4836103fc565b92508282026104b2816103fc565b915082820484148315176104c9576104c861045f565b5b5092915050565b7f4e487b7100000000000000000000000000000000000000000000000000000000600052601260045260246000fd5b600061050a826103fc565b9150610515836103fc565b925082610525576105246104d0565b5b828204905092915050565b600060ff82169050919050565b61054681610530565b811461055157600080fd5b50565b6000815190506105638161053d565b92915050565b60006020828403121561057f5761057e610342565b5b600061058d84828501610554565b91505092915050565b60805160a05160c05160e0516114006105f26000396000818161065001526107980152600081816103ef0152818161044701526107260152600081816103a7015281816107c90152610823015260006103cb01526114006000f3fe6080604052600436106100fe5760003560e01c80635b39c11711610095578063ab0bcc4111610064578063ab0bcc41146102df578063c86a61381461030a578063d96a094a14610335578063f2fde38b14610351578063fc0c546a1461037a576100fe565b80635b39c11714610247578063715018a6146102725780638da5cb5b14610289578063a1542bd2146102b4576100fe565b806327595a80116100d157806327595a80146101af578063380d831b146101da5780633b97e856146101f1578063518ab2a81461021c576100fe565b80631160bdd31461010357806318160ddd1461012e5780631a861d26146101595780631be0528914610184575b600080fd5b34801561010f57600080fd5b506101186103a5565b6040516101259190610bff565b60405180910390f35b34801561013a57600080fd5b506101436103c9565b6040516101509190610bff565b60405180910390f35b34801561016557600080fd5b5061016e6103ed565b60405161017b9190610bff565b60405180910390f35b34801561019057600080fd5b50610199610411565b6040516101a69190610bff565b60405180910390f35b3480156101bb57600080fd5b506101c4610418565b6040516101d19190610bff565b60405180910390f35b3480156101e657600080fd5b506101ef610424565b005b3480156101fd57600080fd5b5061020661064e565b6040516102139190610c36565b60405180910390f35b34801561022857600080fd5b50610231610672565b60405161023e9190610bff565b60405180910390f35b34801561025357600080fd5b5061025c610678565b6040516102699190610bff565b60405180910390f35b34801561027e57600080fd5b5061028761067d565b005b34801561029557600080fd5b5061029e610691565b6040516102ab9190610c92565b60405180910390f35b3480156102c057600080fd5b506102c96106ba565b6040516102d69190610bff565b60405180910390f35b3480156102eb57600080fd5b506102f46106c6565b6040516103019190610bff565b60405180910390f35b34801561031657600080fd5b5061031f6106cc565b60405161032c9190610bff565b60405180910390f35b61034f600480360381019061034a9190610cde565b6106d1565b005b34801561035d57600080fd5b5061037860048036038101906103739190610d37565b6109e7565b005b34801561038657600080fd5b5061038f610a6d565b60405161039c9190610dc3565b60405180910390f35b7f000000000000000000000000000000000000000000000000000000000000000081565b7f000000000000000000000000000000000000000000000000000000000000000081565b7f000000000000000000000000000000000000000000000000000000000000000081565b62278d0081565b674563918244f4000081565b61042c610a93565b62278d0060035461043d9190610e0d565b42118061046c57507f000000000000000000000000000000000000000000000000000000000000000060025410155b6104ab576040517f08c379a00000000000000000000000000000000000000000000000000000000081526004016104a290610e9e565b60405180910390fd5b6000600160009054906101000a900473ffffffffffffffffffffffffffffffffffffffff1673ffffffffffffffffffffffffffffffffffffffff166370a08231306040518263ffffffff1660e01b81526004016105089190610c92565b602060405180830381865afa158015610525573d6000803e3d6000fd5b505050506040513d601f19601f820116820180604052508101906105499190610ed3565b905060008111156105fd57600160009054906101000a900473ffffffffffffffffffffffffffffffffffffffff1673ffffffffffffffffffffffffffffffffffffffff1663a9059cbb61059a610691565b836040518363ffffffff1660e01b81526004016105b8929190610f00565b6020604051808303816000875af11580156105d7573d6000803e3d6000fd5b505050506040513d601f19601f820116820180604052508101906105fb9190610f61565b505b610605610691565b73ffffffffffffffffffffffffffffffffffffffff166108fc479081150290604051600060405180830381858888f1935050505015801561064a573d6000803e3d6000fd5b5050565b7f000000000000000000000000000000000000000000000000000000000000000081565b60025481565b601981565b610685610a93565b61068f6000610b1a565b565b60008060009054906101000a900473ffffffffffffffffffffffffffffffffffffffff16905090565b678ac7230489e8000081565b60035481565b603281565b62278d006003546106e29190610e0d565b421115610724576040517f08c379a000000000000000000000000000000000000000000000000000000000815260040161071b90610fda565b60405180910390fd5b7f0000000000000000000000000000000000000000000000000000000000000000816002546107539190610e0d565b1115610794576040517f08c379a000000000000000000000000000000000000000000000000000000000815260040161078b90611046565b60405180910390fd5b60007f0000000000000000000000000000000000000000000000000000000000000000600a6107c39190611199565b905060007f0000000000000000000000000000000000000000000000000000000000000000836002546107f69190610e0d565b11610821578183674563918244f4000061081091906111e4565b61081a9190611255565b90506108a8565b7f00000000000000000000000000000000000000000000000000000000000000006002541015610886576040517f08c379a000000000000000000000000000000000000000000000000000000000815260040161087d906112d2565b60405180910390fd5b8183678ac7230489e8000061089b91906111e4565b6108a59190611255565b90505b8034146108ea576040517f08c379a00000000000000000000000000000000000000000000000000000000081526004016108e19061133e565b60405180910390fd5b82600260008282546108fc9190610e0d565b92505081905550600160009054906101000a900473ffffffffffffffffffffffffffffffffffffffff1673ffffffffffffffffffffffffffffffffffffffff1663a9059cbb33856040518363ffffffff1660e01b8152600401610960929190610f00565b6020604051808303816000875af115801561097f573d6000803e3d6000fd5b505050506040513d601f19601f820116820180604052508101906109a39190610f61565b6109e2576040517f08c379a00000000000000000000000000000000000000000000000000000000081526004016109d9906113aa565b60405180910390fd5b505050565b6109ef610a93565b600073ffffffffffffffffffffffffffffffffffffffff168173ffffffffffffffffffffffffffffffffffffffff1603610a615760006040517f1e4fbdf7000000000000000000000000000000000000000000000000000000008152600401610a589190610c92565b60405180910390fd5b610a6a81610b1a565b50565b600160009054906101000a900473ffffffffffffffffffffffffffffffffffffffff1681565b610a9b610bde565b73ffffffffffffffffffffffffffffffffffffffff16610ab9610691565b73ffffffffffffffffffffffffffffffffffffffff1614610b1857610adc610bde565b6040517f118cdaa7000000000000000000000000000000000000000000000000000000008152600401610b0f9190610c92565b60405180910390fd5b565b60008060009054906101000a900473ffffffffffffffffffffffffffffffffffffffff169050816000806101000a81548173ffffffffffffffffffffffffffffffffffffffff021916908373ffffffffffffffffffffffffffffffffffffffff1602179055508173ffffffffffffffffffffffffffffffffffffffff168173ffffffffffffffffffffffffffffffffffffffff167f8be0079c531659141344cd1fd0a4f28419497f9722a3daafe3b4186f6b6457e060405160405180910390a35050565b600033905090565b6000819050919050565b610bf981610be6565b82525050565b6000602082019050610c146000830184610bf0565b92915050565b600060ff82169050919050565b610c3081610c1a565b82525050565b6000602082019050610c4b6000830184610c27565b92915050565b600073ffffffffffffffffffffffffffffffffffffffff82169050919050565b6000610c7c82610c51565b9050919050565b610c8c81610c71565b82525050565b6000602082019050610ca76000830184610c83565b92915050565b600080fd5b610cbb81610be6565b8114610cc657600080fd5b50565b600081359050610cd881610cb2565b92915050565b600060208284031215610cf457610cf3610cad565b5b6000610d0284828501610cc9565b91505092915050565b610d1481610c71565b8114610d1f57600080fd5b50565b600081359050610d3181610d0b565b92915050565b600060208284031215610d4d57610d4c610cad565b5b6000610d5b84828501610d22565b91505092915050565b6000819050919050565b6000610d89610d84610d7f84610c51565b610d64565b610c51565b9050919050565b6000610d9b82610d6e565b9050919050565b6000610dad82610d90565b9050919050565b610dbd81610da2565b82525050565b6000602082019050610dd86000830184610db4565b92915050565b7f4e487b7100000000000000000000000000000000000000000000000000000000600052601160045260246000fd5b6000610e1882610be6565b9150610e2383610be6565b9250828201905080821115610e3b57610e3a610dde565b5b92915050565b600082825260208201905092915050565b7f53616c65207374696c6c20616374697665000000000000000000000000000000600082015250565b6000610e88601183610e41565b9150610e9382610e52565b602082019050919050565b60006020820190508181036000830152610eb781610e7b565b9050919050565b600081519050610ecd81610cb2565b92915050565b600060208284031215610ee957610ee8610cad565b5b6000610ef784828501610ebe565b91505092915050565b6000604082019050610f156000830185610c83565b610f226020830184610bf0565b9392505050565b60008115159050919050565b610f3e81610f29565b8114610f4957600080fd5b50565b600081519050610f5b81610f35565b92915050565b600060208284031215610f7757610f76610cad565b5b6000610f8584828501610f4c565b91505092915050565b7f53616c6520656e64656400000000000000000000000000000000000000000000600082015250565b6000610fc4600a83610e41565b9150610fcf82610f8e565b602082019050919050565b60006020820190508181036000830152610ff381610fb7565b9050919050565b7f45786365656473206d61782073616c6500000000000000000000000000000000600082015250565b6000611030601083610e41565b915061103b82610ffa565b602082019050919050565b6000602082019050818103600083015261105f81611023565b9050919050565b60008160011c9050919050565b6000808291508390505b60018511156110bd5780860481111561109957611098610dde565b5b60018516156110a85780820291505b80810290506110b685611066565b945061107d565b94509492505050565b6000826110d65760019050611192565b816110e45760009050611192565b81600181146110fa576002811461110457611133565b6001915050611192565b60ff84111561111657611115610dde565b5b8360020a91508482111561112d5761112c610dde565b5b50611192565b5060208310610133831016604e8410600b84101617156111685782820a90508381111561116357611162610dde565b5b611192565b6111758484846001611073565b9250905081840481111561118c5761118b610dde565b5b81810290505b9392505050565b60006111a482610be6565b91506111af83610c1a565b92506111dc7fffffffffffffffffffffffffffffffffffffffffffffffffffffffffffffffff84846110c6565b905092915050565b60006111ef82610be6565b91506111fa83610be6565b925082820261120881610be6565b9150828204841483151761121f5761121e610dde565b5b5092915050565b7f4e487b7100000000000000000000000000000000000000000000000000000000600052601260045260246000fd5b600061126082610be6565b915061126b83610be6565b92508261127b5761127a611226565b5b828204905092915050565b7f4d757374206275792077697468696e207472616e636865000000000000000000600082015250565b60006112bc601783610e41565b91506112c782611286565b602082019050919050565b600060208201905081810360008301526112eb816112af565b9050919050565b7f496e636f7272656374204554482073656e740000000000000000000000000000600082015250565b6000611328601283610e41565b9150611333826112f2565b602082019050919050565b600060208201905081810360008301526113578161131b565b9050919050565b7f546f6b656e207472616e73666572206661696c65640000000000000000000000600082015250565b6000611394601583610e41565b915061139f8261135e565b602082019050919050565b600060208201905081810360008301526113c381611387565b905091905056fea26469706673582212205a2722d507662206f9a59cbc65f11e61ff8390c79ca2a5944f93570f01c6f88564736f6c634300081c0033","opcodes":"PUSH2 0x100 PUSH1 0x40 MSTORE CALLVALUE DUP1 ISZERO PUSH2 0x11 JUMPI PUSH1 0x0 DUP1 REVERT JUMPDEST POP PUSH1 0x40 MLOAD PUSH2 0x19F2 CODESIZE SUB DUP1 PUSH2 0x19F2 DUP4 CODECOPY DUP2 DUP2 ADD PUSH1 0x40 MSTORE DUP2 ADD SWAP1 PUSH2 0x33 SWAP2 SWAP1 PUSH2 0x3A5 JUMP JUMPDEST CALLER PUSH1 0x0 PUSH20 0xFFFFFFFFFFFFFFFFFFFFFFFFFFFFFFFFFFFFFFFF AND DUP2 PUSH20 0xFFFFFFFFFFFFFFFFFFFFFFFFFFFFFFFFFFFFFFFF AND SUB PUSH2 0xA6 JUMPI PUSH1 0x0 PUSH1 0x40 MLOAD PUSH32 0x1E4FBDF700000000000000000000000000000000000000000000000000000000 DUP2 MSTORE PUSH1 0x4 ADD PUSH2 0x9D SWAP2 SWAP1 PUSH2 0x3E1 JUMP JUMPDEST PUSH1 0x40 MLOAD DUP1 SWAP2 SUB SWAP1 REVERT JUMPDEST PUSH2 0xB5 DUP2 PUSH2 0x27E PUSH1 0x20 SHL PUSH1 0x20 SHR JUMP JUMPDEST POP DUP1 PUSH1 0x1 PUSH1 0x0 PUSH2 0x100 EXP DUP2 SLOAD DUP2 PUSH20 0xFFFFFFFFFFFFFFFFFFFFFFFFFFFFFFFFFFFFFFFF MUL NOT AND SWAP1 DUP4 PUSH20 0xFFFFFFFFFFFFFFFFFFFFFFFFFFFFFFFFFFFFFFFF AND MUL OR SWAP1 SSTORE POP TIMESTAMP PUSH1 0x3 DUP2 SWAP1 SSTORE POP PUSH1 0x1 PUSH1 0x0 SWAP1 SLOAD SWAP1 PUSH2 0x100 EXP SWAP1 DIV PUSH20 0xFFFFFFFFFFFFFFFFFFFFFFFFFFFFFFFFFFFFFFFF AND PUSH20 0xFFFFFFFFFFFFFFFFFFFFFFFFFFFFFFFFFFFFFFFF AND PUSH4 0x18160DDD PUSH1 0x40 MLOAD DUP2 PUSH4 0xFFFFFFFF AND PUSH1 0xE0 SHL DUP2 MSTORE PUSH1 0x4 ADD PUSH1 0x20 PUSH1 0x40 MLOAD DUP1 DUP4 SUB DUP2 DUP7 GAS STATICCALL ISZERO DUP1 ISZERO PUSH2 0x16B JUMPI RETURNDATASIZE PUSH1 0x0 DUP1 RETURNDATACOPY RETURNDATASIZE PUSH1 0x0 REVERT JUMPDEST POP POP POP POP PUSH1 0x40 MLOAD RETURNDATASIZE PUSH1 0x1F NOT PUSH1 0x1F DUP3 ADD AND DUP3 ADD DUP1 PUSH1 0x40 MSTORE POP DUP2 ADD SWAP1 PUSH2 0x18F SWAP2 SWAP1 PUSH2 0x432 JUMP JUMPDEST PUSH1 0x80 DUP2 DUP2 MSTORE POP POP PUSH1 0x64 PUSH1 0x19 PUSH1 0x80 MLOAD PUSH2 0x1A7 SWAP2 SWAP1 PUSH2 0x48E JUMP JUMPDEST PUSH2 0x1B1 SWAP2 SWAP1 PUSH2 0x4FF JUMP JUMPDEST PUSH1 0xA0 DUP2 DUP2 MSTORE POP POP PUSH1 0x64 PUSH1 0x32 PUSH1 0x80 MLOAD PUSH2 0x1C9 SWAP2 SWAP1 PUSH2 0x48E JUMP JUMPDEST PUSH2 0x1D3 SWAP2 SWAP1 PUSH2 0x4FF JUMP JUMPDEST PUSH1 0xC0 DUP2 DUP2 MSTORE POP POP PUSH1 0x1 PUSH1 0x0 SWAP1 SLOAD SWAP1 PUSH2 0x100 EXP SWAP1 DIV PUSH20 0xFFFFFFFFFFFFFFFFFFFFFFFFFFFFFFFFFFFFFFFF AND PUSH20 0xFFFFFFFFFFFFFFFFFFFFFFFFFFFFFFFFFFFFFFFF AND PUSH4 0x313CE567 PUSH1 0x40 MLOAD DUP2 PUSH4 0xFFFFFFFF AND PUSH1 0xE0 SHL DUP2 MSTORE PUSH1 0x4 ADD PUSH1 0x20 PUSH1 0x40 MLOAD DUP1 DUP4 SUB DUP2 DUP7 GAS STATICCALL ISZERO DUP1 ISZERO PUSH2 0x247 JUMPI RETURNDATASIZE PUSH1 0x0 DUP1 RETURNDATACOPY RETURNDATASIZE PUSH1 0x0 REVERT JUMPDEST POP POP POP POP PUSH1 0x40 MLOAD RETURNDATASIZE PUSH1 0x1F NOT PUSH1 0x1F DUP3 ADD AND DUP3 ADD DUP1 PUSH1 0x40 MSTORE POP DUP2 ADD SWAP1 PUSH2 0x26B SWAP2 SWAP1 PUSH2 0x569 JUMP JUMPDEST PUSH1 0xFF AND PUSH1 0xE0 DUP2 PUSH1 0xFF AND DUP2 MSTORE POP POP POP PUSH2 0x596 JUMP JUMPDEST PUSH1 0x0 DUP1 PUSH1 0x0 SWAP1 SLOAD SWAP1 PUSH2 0x100 EXP SWAP1 DIV PUSH20 0xFFFFFFFFFFFFFFFFFFFFFFFFFFFFFFFFFFFFFFFF AND SWAP1 POP DUP2 PUSH1 0x0 DUP1 PUSH2 0x100 EXP DUP2 SLOAD DUP2 PUSH20 0xFFFFFFFFFFFFFFFFFFFFFFFFFFFFFFFFFFFFFFFF MUL NOT AND SWAP1 DUP4 PUSH20 0xFFFFFFFFFFFFFFFFFFFFFFFFFFFFFFFFFFFFFFFF AND MUL OR SWAP1 SSTORE POP DUP2 PUSH20 0xFFFFFFFFFFFFFFFFFFFFFFFFFFFFFFFFFFFFFFFF AND DUP2 PUSH20 0xFFFFFFFFFFFFFFFFFFFFFFFFFFFFFFFFFFFFFFFF AND PUSH32 0x8BE0079C531659141344CD1FD0A4F28419497F9722A3DAAFE3B4186F6B6457E0 PUSH1 0x40 MLOAD PUSH1 0x40 MLOAD DUP1 SWAP2 SUB SWAP1 LOG3 POP POP JUMP JUMPDEST PUSH1 0x0 DUP1 REVERT JUMPDEST PUSH1 0x0 PUSH20 0xFFFFFFFFFFFFFFFFFFFFFFFFFFFFFFFFFFFFFFFF DUP3 AND SWAP1 POP SWAP2 SWAP1 POP JUMP JUMPDEST PUSH1 0x0 PUSH2 0x372 DUP3 PUSH2 0x347 JUMP JUMPDEST SWAP1 POP SWAP2 SWAP1 POP JUMP JUMPDEST PUSH2 0x382 DUP2 PUSH2 0x367 JUMP JUMPDEST DUP2 EQ PUSH2 0x38D JUMPI PUSH1 0x0 DUP1 REVERT JUMPDEST POP JUMP JUMPDEST PUSH1 0x0 DUP2 MLOAD SWAP1 POP PUSH2 0x39F DUP2 PUSH2 0x379 JUMP JUMPDEST SWAP3 SWAP2 POP POP JUMP JUMPDEST PUSH1 0x0 PUSH1 0x20 DUP3 DUP5 SUB SLT ISZERO PUSH2 0x3BB JUMPI PUSH2 0x3BA PUSH2 0x342 JUMP JUMPDEST JUMPDEST PUSH1 0x0 PUSH2 0x3C9 DUP5 DUP3 DUP6 ADD PUSH2 0x390 JUMP JUMPDEST SWAP2 POP POP SWAP3 SWAP2 POP POP JUMP JUMPDEST PUSH2 0x3DB DUP2 PUSH2 0x367 JUMP JUMPDEST DUP3 MSTORE POP POP JUMP JUMPDEST PUSH1 0x0 PUSH1 0x20 DUP3 ADD SWAP1 POP PUSH2 0x3F6 PUSH1 0x0 DUP4 ADD DUP5 PUSH2 0x3D2 JUMP JUMPDEST SWAP3 SWAP2 POP POP JUMP JUMPDEST PUSH1 0x0 DUP2 SWAP1 POP SWAP2 SWAP1 POP JUMP JUMPDEST PUSH2 0x40F DUP2 PUSH2 0x3FC JUMP JUMPDEST DUP2 EQ PUSH2 0x41A JUMPI PUSH1 0x0 DUP1 REVERT JUMPDEST POP JUMP JUMPDEST PUSH1 0x0 DUP2 MLOAD SWAP1 POP PUSH2 0x42C DUP2 PUSH2 0x406 JUMP JUMPDEST SWAP3 SWAP2 POP POP JUMP JUMPDEST PUSH1 0x0 PUSH1 0x20 DUP3 DUP5 SUB SLT ISZERO PUSH2 0x448 JUMPI PUSH2 0x447 PUSH2 0x342 JUMP JUMPDEST JUMPDEST PUSH1 0x0 PUSH2 0x456 DUP5 DUP3 DUP6 ADD PUSH2 0x41D JUMP JUMPDEST SWAP2 POP POP SWAP3 SWAP2 POP POP JUMP JUMPDEST PUSH32 0x4E487B7100000000000000000000000000000000000000000000000000000000 PUSH1 0x0 MSTORE PUSH1 0x11 PUSH1 0x4 MSTORE PUSH1 0x24 PUSH1 0x0 REVERT JUMPDEST PUSH1 0x0 PUSH2 0x499 DUP3 PUSH2 0x3FC JUMP JUMPDEST SWAP2 POP PUSH2 0x4A4 DUP4 PUSH2 0x3FC JUMP JUMPDEST SWAP3 POP DUP3 DUP3 MUL PUSH2 0x4B2 DUP2 PUSH2 0x3FC JUMP JUMPDEST SWAP2 POP DUP3 DUP3 DIV DUP5 EQ DUP4 ISZERO OR PUSH2 0x4C9 JUMPI PUSH2 0x4C8 PUSH2 0x45F JUMP JUMPDEST JUMPDEST POP SWAP3 SWAP2 POP POP JUMP JUMPDEST PUSH32 0x4E487B7100000000000000000000000000000000000000000000000000000000 PUSH1 0x0 MSTORE PUSH1 0x12 PUSH1 0x4 MSTORE PUSH1 0x24 PUSH1 0x0 REVERT JUMPDEST PUSH1 0x0 PUSH2 0x50A DUP3 PUSH2 0x3FC JUMP JUMPDEST SWAP2 POP PUSH2 0x515 DUP4 PUSH2 0x3FC JUMP JUMPDEST SWAP3 POP DUP3 PUSH2 0x525 JUMPI PUSH2 0x524 PUSH2 0x4D0 JUMP JUMPDEST JUMPDEST DUP3 DUP3 DIV SWAP1 POP SWAP3 SWAP2 POP POP JUMP JUMPDEST PUSH1 0x0 PUSH1 0xFF DUP3 AND SWAP1 POP SWAP2 SWAP1 POP JUMP JUMPDEST PUSH2 0x546 DUP2 PUSH2 0x530 JUMP JUMPDEST DUP2 EQ PUSH2 0x551 JUMPI PUSH1 0x0 DUP1 REVERT JUMPDEST POP JUMP JUMPDEST PUSH1 0x0 DUP2 MLOAD SWAP1 POP PUSH2 0x563 DUP2 PUSH2 0x53D JUMP JUMPDEST SWAP3 SWAP2 POP POP JUMP JUMPDEST PUSH1 0x0 PUSH1 0x20 DUP3 DUP5 SUB SLT ISZERO PUSH2 0x57F JUMPI PUSH2 0x57E PUSH2 0x342 JUMP JUMPDEST JUMPDEST PUSH1 0x0 PUSH2 0x58D DUP5 DUP3 DUP6 ADD PUSH2 0x554 JUMP JUMPDEST SWAP2 POP POP SWAP3 SWAP2 POP POP JUMP JUMPDEST PUSH1 0x80 MLOAD PUSH1 0xA0 MLOAD PUSH1 0xC0 MLOAD PUSH1 0xE0 MLOAD PUSH2 0x1400 PUSH2 0x5F2 PUSH1 0x0 CODECOPY PUSH1 0x0 DUP2 DUP2 PUSH2 0x650 ADD MSTORE PUSH2 0x798 ADD MSTORE PUSH1 0x0 DUP2 DUP2 PUSH2 0x3EF ADD MSTORE DUP2 DUP2 PUSH2 0x447 ADD MSTORE PUSH2 0x726 ADD MSTORE PUSH1 0x0 DUP2 DUP2 PUSH2 0x3A7 ADD MSTORE DUP2 DUP2 PUSH2 0x7C9 ADD MSTORE PUSH2 0x823 ADD MSTORE PUSH1 0x0 PUSH2 0x3CB ADD MSTORE PUSH2 0x1400 PUSH1 0x0 RETURN INVALID PUSH1 0x80 PUSH1 0x40 MSTORE PUSH1 0x4 CALLDATASIZE LT PUSH2 0xFE JUMPI PUSH1 0x0 CALLDATALOAD PUSH1 0xE0 SHR DUP1 PUSH4 0x5B39C117 GT PUSH2 0x95 JUMPI DUP1 PUSH4 0xAB0BCC41 GT PUSH2 0x64 JUMPI DUP1 PUSH4 0xAB0BCC41 EQ PUSH2 0x2DF JUMPI DUP1 PUSH4 0xC86A6138 EQ PUSH2 0x30A JUMPI DUP1 PUSH4 0xD96A094A EQ PUSH2 0x335 JUMPI DUP1 PUSH4 0xF2FDE38B EQ PUSH2 0x351 JUMPI DUP1 PUSH4 0xFC0C546A EQ PUSH2 0x37A JUMPI PUSH2 0xFE JUMP JUMPDEST DUP1 PUSH4 0x5B39C117 EQ PUSH2 0x247 JUMPI DUP1 PUSH4 0x715018A6 EQ PUSH2 0x272 JUMPI DUP1 PUSH4 0x8DA5CB5B EQ PUSH2 0x289 JUMPI DUP1 PUSH4 0xA1542BD2 EQ PUSH2 0x2B4 JUMPI PUSH2 0xFE JUMP JUMPDEST DUP1 PUSH4 0x27595A80 GT PUSH2 0xD1 JUMPI DUP1 PUSH4 0x27595A80 EQ PUSH2 0x1AF JUMPI DUP1 PUSH4 0x380D831B EQ PUSH2 0x1DA JUMPI DUP1 PUSH4 0x3B97E856 EQ PUSH2 0x1F1 JUMPI DUP1 PUSH4 0x518AB2A8 EQ PUSH2 0x21C JUMPI PUSH2 0xFE JUMP JUMPDEST DUP1 PUSH4 0x1160BDD3 EQ PUSH2 0x103 JUMPI DUP1 PUSH4 0x18160DDD EQ PUSH2 0x12E JUMPI DUP1 PUSH4 0x1A861D26 EQ PUSH2 0x159 JUMPI DUP1 PUSH4 0x1BE05289 EQ PUSH2 0x184 JUMPI JUMPDEST PUSH1 0x0 DUP1 REVERT JUMPDEST CALLVALUE DUP1 ISZERO PUSH2 0x10F JUMPI PUSH1 0x0 DUP1 REVERT JUMPDEST POP PUSH2 0x118 PUSH2 0x3A5 JUMP JUMPDEST PUSH1 0x40 MLOAD PUSH2 0x125 SWAP2 SWAP1 PUSH2 0xBFF JUMP JUMPDEST PUSH1 0x40 MLOAD DUP1 SWAP2 SUB SWAP1 RETURN JUMPDEST CALLVALUE DUP1 ISZERO PUSH2 0x13A JUMPI PUSH1 0x0 DUP1 REVERT JUMPDEST POP PUSH2 0x143 PUSH2 0x3C9 JUMP JUMPDEST PUSH1 0x40 MLOAD PUSH2 0x150 SWAP2 SWAP1 PUSH2 0xBFF JUMP JUMPDEST PUSH1 0x40 MLOAD DUP1 SWAP2 SUB SWAP1 RETURN JUMPDEST CALLVALUE DUP1 ISZERO PUSH2 0x165 JUMPI PUSH1 0x0 DUP1 REVERT JUMPDEST POP PUSH2 0x16E PUSH2 0x3ED JUMP JUMPDEST PUSH1 0x40 MLOAD PUSH2 0x17B SWAP2 SWAP1 PUSH2 0xBFF JUMP JUMPDEST PUSH1 0x40 MLOAD DUP1 SWAP2 SUB SWAP1 RETURN JUMPDEST CALLVALUE DUP1 ISZERO PUSH2 0x190 JUMPI PUSH1 0x0 DUP1 REVERT JUMPDEST POP PUSH2 0x199 PUSH2 0x411 JUMP JUMPDEST PUSH1 0x40 MLOAD PUSH2 0x1A6 SWAP2 SWAP1 PUSH2 0xBFF JUMP JUMPDEST PUSH1 0x40 MLOAD DUP1 SWAP2 SUB SWAP1 RETURN JUMPDEST CALLVALUE DUP1 ISZERO PUSH2 0x1BB JUMPI PUSH1 0x0 DUP1 REVERT JUMPDEST POP PUSH2 0x1C4 PUSH2 0x418 JUMP JUMPDEST PUSH1 0x40 MLOAD PUSH2 0x1D1 SWAP2 SWAP1 PUSH2 0xBFF JUMP JUMPDEST PUSH1 0x40 MLOAD DUP1 SWAP2 SUB SWAP1 RETURN JUMPDEST CALLVALUE DUP1 ISZERO PUSH2 0x1E6 JUMPI PUSH1 0x0 DUP1 REVERT JUMPDEST POP PUSH2 0x1EF PUSH2 0x424 JUMP JUMPDEST STOP JUMPDEST CALLVALUE DUP1 ISZERO PUSH2 0x1FD JUMPI PUSH1 0x0 DUP1 REVERT JUMPDEST POP PUSH2 0x206 PUSH2 0x64E JUMP JUMPDEST PUSH1 0x40 MLOAD PUSH2 0x213 SWAP2 SWAP1 PUSH2 0xC36 JUMP JUMPDEST PUSH1 0x40 MLOAD DUP1 SWAP2 SUB SWAP1 RETURN JUMPDEST CALLVALUE DUP1 ISZERO PUSH2 0x228 JUMPI PUSH1 0x0 DUP1 REVERT JUMPDEST POP PUSH2 0x231 PUSH2 0x672 JUMP JUMPDEST PUSH1 0x40 MLOAD PUSH2 0x23E SWAP2 SWAP1 PUSH2 0xBFF JUMP JUMPDEST PUSH1 0x40 MLOAD DUP1 SWAP2 SUB SWAP1 RETURN JUMPDEST CALLVALUE DUP1 ISZERO PUSH2 0x253 JUMPI PUSH1 0x0 DUP1 REVERT JUMPDEST POP PUSH2 0x25C PUSH2 0x678 JUMP JUMPDEST PUSH1 0x40 MLOAD PUSH2 0x269 SWAP2 SWAP1 PUSH2 0xBFF JUMP JUMPDEST PUSH1 0x40 MLOAD DUP1 SWAP2 SUB SWAP1 RETURN JUMPDEST CALLVALUE DUP1 ISZERO PUSH2 0x27E JUMPI PUSH1 0x0 DUP1 REVERT JUMPDEST POP PUSH2 0x287 PUSH2 0x67D JUMP JUMPDEST STOP JUMPDEST CALLVALUE DUP1 ISZERO PUSH2 0x295 JUMPI PUSH1 0x0 DUP1 REVERT JUMPDEST POP PUSH2 0x29E PUSH2 0x691 JUMP JUMPDEST PUSH1 0x40 MLOAD PUSH2 0x2AB SWAP2 SWAP1 PUSH2 0xC92 JUMP JUMPDEST PUSH1 0x40 MLOAD DUP1 SWAP2 SUB SWAP1 RETURN JUMPDEST CALLVALUE DUP1 ISZERO PUSH2 0x2C0 JUMPI PUSH1 0x0 DUP1 REVERT JUMPDEST POP PUSH2 0x2C9 PUSH2 0x6BA JUMP JUMPDEST PUSH1 0x40 MLOAD PUSH2 0x2D6 SWAP2 SWAP1 PUSH2 0xBFF JUMP JUMPDEST PUSH1 0x40 MLOAD DUP1 SWAP2 SUB SWAP1 RETURN JUMPDEST CALLVALUE DUP1 ISZERO PUSH2 0x2EB JUMPI PUSH1 0x0 DUP1 REVERT JUMPDEST POP PUSH2 0x2F4 PUSH2 0x6C6 JUMP JUMPDEST PUSH1 0x40 MLOAD PUSH2 0x301 SWAP2 SWAP1 PUSH2 0xBFF JUMP JUMPDEST PUSH1 0x40 MLOAD DUP1 SWAP2 SUB SWAP1 RETURN JUMPDEST CALLVALUE DUP1 ISZERO PUSH2 0x316 JUMPI PUSH1 0x0 DUP1 REVERT JUMPDEST POP PUSH2 0x31F PUSH2 0x6CC JUMP JUMPDEST PUSH1 0x40 MLOAD PUSH2 0x32C SWAP2 SWAP1 PUSH2 0xBFF JUMP JUMPDEST PUSH1 0x40 MLOAD DUP1 SWAP2 SUB SWAP1 RETURN JUMPDEST PUSH2 0x34F PUSH1 0x4 DUP1 CALLDATASIZE SUB DUP2 ADD SWAP1 PUSH2 0x34A SWAP2 SWAP1 PUSH2 0xCDE JUMP JUMPDEST PUSH2 0x6D1 JUMP JUMPDEST STOP JUMPDEST CALLVALUE DUP1 ISZERO PUSH2 0x35D JUMPI PUSH1 0x0 DUP1 REVERT JUMPDEST POP PUSH2 0x378 PUSH1 0x4 DUP1 CALLDATASIZE SUB DUP2 ADD SWAP1 PUSH2 0x373 SWAP2 SWAP1 PUSH2 0xD37 JUMP JUMPDEST PUSH2 0x9E7 JUMP JUMPDEST STOP JUMPDEST CALLVALUE DUP1 ISZERO PUSH2 0x386 JUMPI PUSH1 0x0 DUP1 REVERT JUMPDEST POP PUSH2 0x38F PUSH2 0xA6D JUMP JUMPDEST PUSH1 0x40 MLOAD PUSH2 0x39C SWAP2 SWAP1 PUSH2 0xDC3 JUMP JUMPDEST PUSH1 0x40 MLOAD DUP1 SWAP2 SUB SWAP1 RETURN JUMPDEST PUSH32 0x0 DUP2 JUMP JUMPDEST PUSH32 0x0 DUP2 JUMP JUMPDEST PUSH32 0x0 DUP2 JUMP JUMPDEST PUSH3 0x278D00 DUP2 JUMP JUMPDEST PUSH8 0x4563918244F40000 DUP2 JUMP JUMPDEST PUSH2 0x42C PUSH2 0xA93 JUMP JUMPDEST PUSH3 0x278D00 PUSH1 0x3 SLOAD PUSH2 0x43D SWAP2 SWAP1 PUSH2 0xE0D JUMP JUMPDEST TIMESTAMP GT DUP1 PUSH2 0x46C JUMPI POP PUSH32 0x0 PUSH1 0x2 SLOAD LT ISZERO JUMPDEST PUSH2 0x4AB JUMPI PUSH1 0x40 MLOAD PUSH32 0x8C379A000000000000000000000000000000000000000000000000000000000 DUP2 MSTORE PUSH1 0x4 ADD PUSH2 0x4A2 SWAP1 PUSH2 0xE9E JUMP JUMPDEST PUSH1 0x40 MLOAD DUP1 SWAP2 SUB SWAP1 REVERT JUMPDEST PUSH1 0x0 PUSH1 0x1 PUSH1 0x0 SWAP1 SLOAD SWAP1 PUSH2 0x100 EXP SWAP1 DIV PUSH20 0xFFFFFFFFFFFFFFFFFFFFFFFFFFFFFFFFFFFFFFFF AND PUSH20 0xFFFFFFFFFFFFFFFFFFFFFFFFFFFFFFFFFFFFFFFF AND PUSH4 0x70A08231 ADDRESS PUSH1 0x40 MLOAD DUP3 PUSH4 0xFFFFFFFF AND PUSH1 0xE0 SHL DUP2 MSTORE PUSH1 0x4 ADD PUSH2 0x508 SWAP2 SWAP1 PUSH2 0xC92 JUMP JUMPDEST PUSH1 0x20 PUSH1 0x40 MLOAD DUP1 DUP4 SUB DUP2 DUP7 GAS STATICCALL ISZERO DUP1 ISZERO PUSH2 0x525 JUMPI RETURNDATASIZE PUSH1 0x0 DUP1 RETURNDATACOPY RETURNDATASIZE PUSH1 0x0 REVERT JUMPDEST POP POP POP POP PUSH1 0x40 MLOAD RETURNDATASIZE PUSH1 0x1F NOT PUSH1 0x1F DUP3 ADD AND DUP3 ADD DUP1 PUSH1 0x40 MSTORE POP DUP2 ADD SWAP1 PUSH2 0x549 SWAP2 SWAP1 PUSH2 0xED3 JUMP JUMPDEST SWAP1 POP PUSH1 0x0 DUP2 GT ISZERO PUSH2 0x5FD JUMPI PUSH1 0x1 PUSH1 0x0 SWAP1 SLOAD SWAP1 PUSH2 0x100 EXP SWAP1 DIV PUSH20 0xFFFFFFFFFFFFFFFFFFFFFFFFFFFFFFFFFFFFFFFF AND PUSH20 0xFFFFFFFFFFFFFFFFFFFFFFFFFFFFFFFFFFFFFFFF AND PUSH4 0xA9059CBB PUSH2 0x59A PUSH2 0x691 JUMP JUMPDEST DUP4 PUSH1 0x40 MLOAD DUP4 PUSH4 0xFFFFFFFF AND PUSH1 0xE0 SHL DUP2 MSTORE PUSH1 0x4 ADD PUSH2 0x5B8 SWAP3 SWAP2 SWAP1 PUSH2 0xF00 JUMP JUMPDEST PUSH1 0x20 PUSH1 0x40 MLOAD DUP1 DUP4 SUB DUP2 PUSH1 0x0 DUP8 GAS CALL ISZERO DUP1 ISZERO PUSH2 0x5D7 JUMPI RETURNDATASIZE PUSH1 0x0 DUP1 RETURNDATACOPY RETURNDATASIZE PUSH1 0x0 REVERT JUMPDEST POP POP POP POP PUSH1 0x40 MLOAD RETURNDATASIZE PUSH1 0x1F NOT PUSH1 0x1F DUP3 ADD AND DUP3 ADD DUP1 PUSH1 0x40 MSTORE POP DUP2 ADD SWAP1 PUSH2 0x5FB SWAP2 SWAP1 PUSH2 0xF61 JUMP JUMPDEST POP JUMPDEST PUSH2 0x605 PUSH2 0x691 JUMP JUMPDEST PUSH20 0xFFFFFFFFFFFFFFFFFFFFFFFFFFFFFFFFFFFFFFFF AND PUSH2 0x8FC SELFBALANCE SWAP1 DUP2 ISZERO MUL SWAP1 PUSH1 0x40 MLOAD PUSH1 0x0 PUSH1 0x40 MLOAD DUP1 DUP4 SUB DUP2 DUP6 DUP9 DUP9 CALL SWAP4 POP POP POP POP ISZERO DUP1 ISZERO PUSH2 0x64A JUMPI RETURNDATASIZE PUSH1 0x0 DUP1 RETURNDATACOPY RETURNDATASIZE PUSH1 0x0 REVERT JUMPDEST POP POP JUMP JUMPDEST PUSH32 0x0 DUP2 JUMP JUMPDEST PUSH1 0x2 SLOAD DUP2 JUMP JUMPDEST PUSH1 0x19 DUP2 JUMP JUMPDEST PUSH2 0x685 PUSH2 0xA93 JUMP JUMPDEST PUSH2 0x68F PUSH1 0x0 PUSH2 0xB1A JUMP JUMPDEST JUMP JUMPDEST PUSH1 0x0 DUP1 PUSH1 0x0 SWAP1 SLOAD SWAP1 PUSH2 0x100 EXP SWAP1 DIV PUSH20 0xFFFFFFFFFFFFFFFFFFFFFFFFFFFFFFFFFFFFFFFF AND SWAP1 POP SWAP1 JUMP JUMPDEST PUSH8 0x8AC7230489E80000 DUP2 JUMP JUMPDEST PUSH1 0x3 SLOAD DUP2 JUMP JUMPDEST PUSH1 0x32 DUP2 JUMP JUMPDEST PUSH3 0x278D00 PUSH1 0x3 SLOAD PUSH2 0x6E2 SWAP2 SWAP1 PUSH2 0xE0D JUMP JUMPDEST TIMESTAMP GT ISZERO PUSH2 0x724 JUMPI PUSH1 0x40 MLOAD PUSH32 0x8C379A000000000000000000000000000000000000000000000000000000000 DUP2 MSTORE PUSH1 0x4 ADD PUSH2 0x71B SWAP1 PUSH2 0xFDA JUMP JUMPDEST PUSH1 0x40 MLOAD DUP1 SWAP2 SUB SWAP1 REVERT JUMPDEST PUSH32 0x0 DUP2 PUSH1 0x2 SLOAD PUSH2 0x753 SWAP2 SWAP1 PUSH2 0xE0D JUMP JUMPDEST GT ISZERO PUSH2 0x794 JUMPI PUSH1 0x40 MLOAD PUSH32 0x8C379A000000000000000000000000000000000000000000000000000000000 DUP2 MSTORE PUSH1 0x4 ADD PUSH2 0x78B SWAP1 PUSH2 0x1046 JUMP JUMPDEST PUSH1 0x40 MLOAD DUP1 SWAP2 SUB SWAP1 REVERT JUMPDEST PUSH1 0x0 PUSH32 0x0 PUSH1 0xA PUSH2 0x7C3 SWAP2 SWAP1 PUSH2 0x1199 JUMP JUMPDEST SWAP1 POP PUSH1 0x0 PUSH32 0x0 DUP4 PUSH1 0x2 SLOAD PUSH2 0x7F6 SWAP2 SWAP1 PUSH2 0xE0D JUMP JUMPDEST GT PUSH2 0x821 JUMPI DUP2 DUP4 PUSH8 0x4563918244F40000 PUSH2 0x810 SWAP2 SWAP1 PUSH2 0x11E4 JUMP JUMPDEST PUSH2 0x81A SWAP2 SWAP1 PUSH2 0x1255 JUMP JUMPDEST SWAP1 POP PUSH2 0x8A8 JUMP JUMPDEST PUSH32 0x0 PUSH1 0x2 SLOAD LT ISZERO PUSH2 0x886 JUMPI PUSH1 0x40 MLOAD PUSH32 0x8C379A000000000000000000000000000000000000000000000000000000000 DUP2 MSTORE PUSH1 0x4 ADD PUSH2 0x87D SWAP1 PUSH2 0x12D2 JUMP JUMPDEST PUSH1 0x40 MLOAD DUP1 SWAP2 SUB SWAP1 REVERT JUMPDEST DUP2 DUP4 PUSH8 0x8AC7230489E80000 PUSH2 0x89B SWAP2 SWAP1 PUSH2 0x11E4 JUMP JUMPDEST PUSH2 0x8A5 SWAP2 SWAP1 PUSH2 0x1255 JUMP JUMPDEST SWAP1 POP JUMPDEST DUP1 CALLVALUE EQ PUSH2 0x8EA JUMPI PUSH1 0x40 MLOAD PUSH32 0x8C379A000000000000000000000000000000000000000000000000000000000 DUP2 MSTORE PUSH1 0x4 ADD PUSH2 0x8E1 SWAP1 PUSH2 0x133E JUMP JUMPDEST PUSH1 0x40 MLOAD DUP1 SWAP2 SUB SWAP1 REVERT JUMPDEST DUP3 PUSH1 0x2 PUSH1 0x0 DUP3 DUP3 SLOAD PUSH2 0x8FC SWAP2 SWAP1 PUSH2 0xE0D JUMP JUMPDEST SWAP3 POP POP DUP2 SWAP1 SSTORE POP PUSH1 0x1 PUSH1 0x0 SWAP1 SLOAD SWAP1 PUSH2 0x100 EXP SWAP1 DIV PUSH20 0xFFFFFFFFFFFFFFFFFFFFFFFFFFFFFFFFFFFFFFFF AND PUSH20 0xFFFFFFFFFFFFFFFFFFFFFFFFFFFFFFFFFFFFFFFF AND PUSH4 0xA9059CBB CALLER DUP6 PUSH1 0x40 MLOAD DUP4 PUSH4 0xFFFFFFFF AND PUSH1 0xE0 SHL DUP2 MSTORE PUSH1 0x4 ADD PUSH2 0x960 SWAP3 SWAP2 SWAP1 PUSH2 0xF00 JUMP JUMPDEST PUSH1 0x20 PUSH1 0x40 MLOAD DUP1 DUP4 SUB DUP2 PUSH1 0x0 DUP8 GAS CALL ISZERO DUP1 ISZERO PUSH2 0x97F JUMPI RETURNDATASIZE PUSH1 0x0 DUP1 RETURNDATACOPY RETURNDATASIZE PUSH1 0x0 REVERT JUMPDEST POP POP POP POP PUSH1 0x40 MLOAD RETURNDATASIZE PUSH1 0x1F NOT PUSH1 0x1F DUP3 ADD AND DUP3 ADD DUP1 PUSH1 0x40 MSTORE POP DUP2 ADD SWAP1 PUSH2 0x9A3 SWAP2 SWAP1 PUSH2 0xF61 JUMP JUMPDEST PUSH2 0x9E2 JUMPI PUSH1 0x40 MLOAD PUSH32 0x8C379A000000000000000000000000000000000000000000000000000000000 DUP2 MSTORE PUSH1 0x4 ADD PUSH2 0x9D9 SWAP1 PUSH2 0x13AA JUMP JUMPDEST PUSH1 0x40 MLOAD DUP1 SWAP2 SUB SWAP1 REVERT JUMPDEST POP POP POP JUMP JUMPDEST PUSH2 0x9EF PUSH2 0xA93 JUMP JUMPDEST PUSH1 0x0 PUSH20 0xFFFFFFFFFFFFFFFFFFFFFFFFFFFFFFFFFFFFFFFF AND DUP2 PUSH20 0xFFFFFFFFFFFFFFFFFFFFFFFFFFFFFFFFFFFFFFFF AND SUB PUSH2 0xA61 JUMPI PUSH1 0x0 PUSH1 0x40 MLOAD PUSH32 0x1E4FBDF700000000000000000000000000000000000000000000000000000000 DUP2 MSTORE PUSH1 0x4 ADD PUSH2 0xA58 SWAP2 SWAP1 PUSH2 0xC92 JUMP JUMPDEST PUSH1 0x40 MLOAD DUP1 SWAP2 SUB SWAP1 REVERT JUMPDEST PUSH2 0xA6A DUP2 PUSH2 0xB1A JUMP JUMPDEST POP JUMP JUMPDEST PUSH1 0x1 PUSH1 0x0 SWAP1 SLOAD SWAP1 PUSH2 0x100 EXP SWAP1 DIV PUSH20 0xFFFFFFFFFFFFFFFFFFFFFFFFFFFFFFFFFFFFFFFF AND DUP2 JUMP JUMPDEST PUSH2 0xA9B PUSH2 0xBDE JUMP JUMPDEST PUSH20 0xFFFFFFFFFFFFFFFFFFFFFFFFFFFFFFFFFFFFFFFF AND PUSH2 0xAB9 PUSH2 0x691 JUMP JUMPDEST PUSH20 0xFFFFFFFFFFFFFFFFFFFFFFFFFFFFFFFFFFFFFFFF AND EQ PUSH2 0xB18 JUMPI PUSH2 0xADC PUSH2 0xBDE JUMP JUMPDEST PUSH1 0x40 MLOAD PUSH32 0x118CDAA700000000000000000000000000000000000000000000000000000000 DUP2 MSTORE PUSH1 0x4 ADD PUSH2 0xB0F SWAP2 SWAP1 PUSH2 0xC92 JUMP JUMPDEST PUSH1 0x40 MLOAD DUP1 SWAP2 SUB SWAP1 REVERT JUMPDEST JUMP JUMPDEST PUSH1 0x0 DUP1 PUSH1 0x0 SWAP1 SLOAD SWAP1 PUSH2 0x100 EXP SWAP1 DIV PUSH20 0xFFFFFFFFFFFFFFFFFFFFFFFFFFFFFFFFFFFFFFFF AND SWAP1 POP DUP2 PUSH1 0x0 DUP1 PUSH2 0x100 EXP DUP2 SLOAD DUP2 PUSH20 0xFFFFFFFFFFFFFFFFFFFFFFFFFFFFFFFFFFFFFFFF MUL NOT AND SWAP1 DUP4 PUSH20 0xFFFFFFFFFFFFFFFFFFFFFFFFFFFFFFFFFFFFFFFF AND MUL OR SWAP1 SSTORE POP DUP2 PUSH20 0xFFFFFFFFFFFFFFFFFFFFFFFFFFFFFFFFFFFFFFFF AND DUP2 PUSH20 0xFFFFFFFFFFFFFFFFFFFFFFFFFFFFFFFFFFFFFFFF AND PUSH32 0x8BE0079C531659141344CD1FD0A4F28419497F9722A3DAAFE3B4186F6B6457E0 PUSH1 0x40 MLOAD PUSH1 0x40 MLOAD DUP1 SWAP2 SUB SWAP1 LOG3 POP POP JUMP JUMPDEST PUSH1 0x0 CALLER SWAP1 POP SWAP1 JUMP JUMPDEST PUSH1 0x0 DUP2 SWAP1 POP SWAP2 SWAP1 POP JUMP JUMPDEST PUSH2 0xBF9 DUP2 PUSH2 0xBE6 JUMP JUMPDEST DUP3 MSTORE POP POP JUMP JUMPDEST PUSH1 0x0 PUSH1 0x20 DUP3 ADD SWAP1 POP PUSH2 0xC14 PUSH1 0x0 DUP4 ADD DUP5 PUSH2 0xBF0 JUMP JUMPDEST SWAP3 SWAP2 POP POP JUMP JUMPDEST PUSH1 0x0 PUSH1 0xFF DUP3 AND SWAP1 POP SWAP2 SWAP1 POP JUMP JUMPDEST PUSH2 0xC30 DUP2 PUSH2 0xC1A JUMP JUMPDEST DUP3 MSTORE POP POP JUMP JUMPDEST PUSH1 0x0 PUSH1 0x20 DUP3 ADD SWAP1 POP PUSH2 0xC4B PUSH1 0x0 DUP4 ADD DUP5 PUSH2 0xC27 JUMP JUMPDEST SWAP3 SWAP2 POP POP JUMP JUMPDEST PUSH1 0x0 PUSH20 0xFFFFFFFFFFFFFFFFFFFFFFFFFFFFFFFFFFFFFFFF DUP3 AND SWAP1 POP SWAP2 SWAP1 POP JUMP JUMPDEST PUSH1 0x0 PUSH2 0xC7C DUP3 PUSH2 0xC51 JUMP JUMPDEST SWAP1 POP SWAP2 SWAP1 POP JUMP JUMPDEST PUSH2 0xC8C DUP2 PUSH2 0xC71 JUMP JUMPDEST DUP3 MSTORE POP POP JUMP JUMPDEST PUSH1 0x0 PUSH1 0x20 DUP3 ADD SWAP1 POP PUSH2 0xCA7 PUSH1 0x0 DUP4 ADD DUP5 PUSH2 0xC83 JUMP JUMPDEST SWAP3 SWAP2 POP POP JUMP JUMPDEST PUSH1 0x0 DUP1 REVERT JUMPDEST PUSH2 0xCBB DUP2 PUSH2 0xBE6 JUMP JUMPDEST DUP2 EQ PUSH2 0xCC6 JUMPI PUSH1 0x0 DUP1 REVERT JUMPDEST POP JUMP JUMPDEST PUSH1 0x0 DUP2 CALLDATALOAD SWAP1 POP PUSH2 0xCD8 DUP2 PUSH2 0xCB2 JUMP JUMPDEST SWAP3 SWAP2 POP POP JUMP JUMPDEST PUSH1 0x0 PUSH1 0x20 DUP3 DUP5 SUB SLT ISZERO PUSH2 0xCF4 JUMPI PUSH2 0xCF3 PUSH2 0xCAD JUMP JUMPDEST JUMPDEST PUSH1 0x0 PUSH2 0xD02 DUP5 DUP3 DUP6 ADD PUSH2 0xCC9 JUMP JUMPDEST SWAP2 POP POP SWAP3 SWAP2 POP POP JUMP JUMPDEST PUSH2 0xD14 DUP2 PUSH2 0xC71 JUMP JUMPDEST DUP2 EQ PUSH2 0xD1F JUMPI PUSH1 0x0 DUP1 REVERT JUMPDEST POP JUMP JUMPDEST PUSH1 0x0 DUP2 CALLDATALOAD SWAP1 POP PUSH2 0xD31 DUP2 PUSH2 0xD0B JUMP JUMPDEST SWAP3 SWAP2 POP POP JUMP JUMPDEST PUSH1 0x0 PUSH1 0x20 DUP3 DUP5 SUB SLT ISZERO PUSH2 0xD4D JUMPI PUSH2 0xD4C PUSH2 0xCAD JUMP JUMPDEST JUMPDEST PUSH1 0x0 PUSH2 0xD5B DUP5 DUP3 DUP6 ADD PUSH2 0xD22 JUMP JUMPDEST SWAP2 POP POP SWAP3 SWAP2 POP POP JUMP JUMPDEST PUSH1 0x0 DUP2 SWAP1 POP SWAP2 SWAP1 POP JUMP JUMPDEST PUSH1 0x0 PUSH2 0xD89 PUSH2 0xD84 PUSH2 0xD7F DUP5 PUSH2 0xC51 JUMP JUMPDEST PUSH2 0xD64 JUMP JUMPDEST PUSH2 0xC51 JUMP JUMPDEST SWAP1 POP SWAP2 SWAP1 POP JUMP JUMPDEST PUSH1 0x0 PUSH2 0xD9B DUP3 PUSH2 0xD6E JUMP JUMPDEST SWAP1 POP SWAP2 SWAP1 POP JUMP JUMPDEST PUSH1 0x0 PUSH2 0xDAD DUP3 PUSH2 0xD90 JUMP JUMPDEST SWAP1 POP SWAP2 SWAP1 POP JUMP JUMPDEST PUSH2 0xDBD DUP2 PUSH2 0xDA2 JUMP JUMPDEST DUP3 MSTORE POP POP JUMP JUMPDEST PUSH1 0x0 PUSH1 0x20 DUP3 ADD SWAP1 POP PUSH2 0xDD8 PUSH1 0x0 DUP4 ADD DUP5 PUSH2 0xDB4 JUMP JUMPDEST SWAP3 SWAP2 POP POP JUMP JUMPDEST PUSH32 0x4E487B7100000000000000000000000000000000000000000000000000000000 PUSH1 0x0 MSTORE PUSH1 0x11 PUSH1 0x4 MSTORE PUSH1 0x24 PUSH1 0x0 REVERT JUMPDEST PUSH1 0x0 PUSH2 0xE18 DUP3 PUSH2 0xBE6 JUMP JUMPDEST SWAP2 POP PUSH2 0xE23 DUP4 PUSH2 0xBE6 JUMP JUMPDEST SWAP3 POP DUP3 DUP3 ADD SWAP1 POP DUP1 DUP3 GT ISZERO PUSH2 0xE3B JUMPI PUSH2 0xE3A PUSH2 0xDDE JUMP JUMPDEST JUMPDEST SWAP3 SWAP2 POP POP JUMP JUMPDEST PUSH1 0x0 DUP3 DUP3 MSTORE PUSH1 0x20 DUP3 ADD SWAP1 POP SWAP3 SWAP2 POP POP JUMP JUMPDEST PUSH32 0x53616C65207374696C6C20616374697665000000000000000000000000000000 PUSH1 0x0 DUP3 ADD MSTORE POP JUMP JUMPDEST PUSH1 0x0 PUSH2 0xE88 PUSH1 0x11 DUP4 PUSH2 0xE41 JUMP JUMPDEST SWAP2 POP PUSH2 0xE93 DUP3 PUSH2 0xE52 JUMP JUMPDEST PUSH1 0x20 DUP3 ADD SWAP1 POP SWAP2 SWAP1 POP JUMP JUMPDEST PUSH1 0x0 PUSH1 0x20 DUP3 ADD SWAP1 POP DUP2 DUP2 SUB PUSH1 0x0 DUP4 ADD MSTORE PUSH2 0xEB7 DUP2 PUSH2 0xE7B JUMP JUMPDEST SWAP1 POP SWAP2 SWAP1 POP JUMP JUMPDEST PUSH1 0x0 DUP2 MLOAD SWAP1 POP PUSH2 0xECD DUP2 PUSH2 0xCB2 JUMP JUMPDEST SWAP3 SWAP2 POP POP JUMP JUMPDEST PUSH1 0x0 PUSH1 0x20 DUP3 DUP5 SUB SLT ISZERO PUSH2 0xEE9 JUMPI PUSH2 0xEE8 PUSH2 0xCAD JUMP JUMPDEST JUMPDEST PUSH1 0x0 PUSH2 0xEF7 DUP5 DUP3 DUP6 ADD PUSH2 0xEBE JUMP JUMPDEST SWAP2 POP POP SWAP3 SWAP2 POP POP JUMP JUMPDEST PUSH1 0x0 PUSH1 0x40 DUP3 ADD SWAP1 POP PUSH2 0xF15 PUSH1 0x0 DUP4 ADD DUP6 PUSH2 0xC83 JUMP JUMPDEST PUSH2 0xF22 PUSH1 0x20 DUP4 ADD DUP5 PUSH2 0xBF0 JUMP JUMPDEST SWAP4 SWAP3 POP POP POP JUMP JUMPDEST PUSH1 0x0 DUP2 ISZERO ISZERO SWAP1 POP SWAP2 SWAP1 POP JUMP JUMPDEST PUSH2 0xF3E DUP2 PUSH2 0xF29 JUMP JUMPDEST DUP2 EQ PUSH2 0xF49 JUMPI PUSH1 0x0 DUP1 REVERT JUMPDEST POP JUMP JUMPDEST PUSH1 0x0 DUP2 MLOAD SWAP1 POP PUSH2 0xF5B DUP2 PUSH2 0xF35 JUMP JUMPDEST SWAP3 SWAP2 POP POP JUMP JUMPDEST PUSH1 0x0 PUSH1 0x20 DUP3 DUP5 SUB SLT ISZERO PUSH2 0xF77 JUMPI PUSH2 0xF76 PUSH2 0xCAD JUMP JUMPDEST JUMPDEST PUSH1 0x0 PUSH2 0xF85 DUP5 DUP3 DUP6 ADD PUSH2 0xF4C JUMP JUMPDEST SWAP2 POP POP SWAP3 SWAP2 POP POP JUMP JUMPDEST PUSH32 0x53616C6520656E64656400000000000000000000000000000000000000000000 PUSH1 0x0 DUP3 ADD MSTORE POP JUMP JUMPDEST PUSH1 0x0 PUSH2 0xFC4 PUSH1 0xA DUP4 PUSH2 0xE41 JUMP JUMPDEST SWAP2 POP PUSH2 0xFCF DUP3 PUSH2 0xF8E JUMP JUMPDEST PUSH1 0x20 DUP3 ADD SWAP1 POP SWAP2 SWAP1 POP JUMP JUMPDEST PUSH1 0x0 PUSH1 0x20 DUP3 ADD SWAP1 POP DUP2 DUP2 SUB PUSH1 0x0 DUP4 ADD MSTORE PUSH2 0xFF3 DUP2 PUSH2 0xFB7 JUMP JUMPDEST SWAP1 POP SWAP2 SWAP1 POP JUMP JUMPDEST PUSH32 0x45786365656473206D61782073616C6500000000000000000000000000000000 PUSH1 0x0 DUP3 ADD MSTORE POP JUMP JUMPDEST PUSH1 0x0 PUSH2 0x1030 PUSH1 0x10 DUP4 PUSH2 0xE41 JUMP JUMPDEST SWAP2 POP PUSH2 0x103B DUP3 PUSH2 0xFFA JUMP JUMPDEST PUSH1 0x20 DUP3 ADD SWAP1 POP SWAP2 SWAP1 POP JUMP JUMPDEST PUSH1 0x0 PUSH1 0x20 DUP3 ADD SWAP1 POP DUP2 DUP2 SUB PUSH1 0x0 DUP4 ADD MSTORE PUSH2 0x105F DUP2 PUSH2 0x1023 JUMP JUMPDEST SWAP1 POP SWAP2 SWAP1 POP JUMP JUMPDEST PUSH1 0x0 DUP2 PUSH1 0x1 SHR SWAP1 POP SWAP2 SWAP1 POP JUMP JUMPDEST PUSH1 0x0 DUP1 DUP3 SWAP2 POP DUP4 SWAP1 POP JUMPDEST PUSH1 0x1 DUP6 GT ISZERO PUSH2 0x10BD JUMPI DUP1 DUP7 DIV DUP2 GT ISZERO PUSH2 0x1099 JUMPI PUSH2 0x1098 PUSH2 0xDDE JUMP JUMPDEST JUMPDEST PUSH1 0x1 DUP6 AND ISZERO PUSH2 0x10A8 JUMPI DUP1 DUP3 MUL SWAP2 POP JUMPDEST DUP1 DUP2 MUL SWAP1 POP PUSH2 0x10B6 DUP6 PUSH2 0x1066 JUMP JUMPDEST SWAP5 POP PUSH2 0x107D JUMP JUMPDEST SWAP5 POP SWAP5 SWAP3 POP POP POP JUMP JUMPDEST PUSH1 0x0 DUP3 PUSH2 0x10D6 JUMPI PUSH1 0x1 SWAP1 POP PUSH2 0x1192 JUMP JUMPDEST DUP2 PUSH2 0x10E4 JUMPI PUSH1 0x0 SWAP1 POP PUSH2 0x1192 JUMP JUMPDEST DUP2 PUSH1 0x1 DUP2 EQ PUSH2 0x10FA JUMPI PUSH1 0x2 DUP2 EQ PUSH2 0x1104 JUMPI PUSH2 0x1133 JUMP JUMPDEST PUSH1 0x1 SWAP2 POP POP PUSH2 0x1192 JUMP JUMPDEST PUSH1 0xFF DUP5 GT ISZERO PUSH2 0x1116 JUMPI PUSH2 0x1115 PUSH2 0xDDE JUMP JUMPDEST JUMPDEST DUP4 PUSH1 0x2 EXP SWAP2 POP DUP5 DUP3 GT ISZERO PUSH2 0x112D JUMPI PUSH2 0x112C PUSH2 0xDDE JUMP JUMPDEST JUMPDEST POP PUSH2 0x1192 JUMP JUMPDEST POP PUSH1 0x20 DUP4 LT PUSH2 0x133 DUP4 LT AND PUSH1 0x4E DUP5 LT PUSH1 0xB DUP5 LT AND OR ISZERO PUSH2 0x1168 JUMPI DUP3 DUP3 EXP SWAP1 POP DUP4 DUP2 GT ISZERO PUSH2 0x1163 JUMPI PUSH2 0x1162 PUSH2 0xDDE JUMP JUMPDEST JUMPDEST PUSH2 0x1192 JUMP JUMPDEST PUSH2 0x1175 DUP5 DUP5 DUP5 PUSH1 0x1 PUSH2 0x1073 JUMP JUMPDEST SWAP3 POP SWAP1 POP DUP2 DUP5 DIV DUP2 GT ISZERO PUSH2 0x118C JUMPI PUSH2 0x118B PUSH2 0xDDE JUMP JUMPDEST JUMPDEST DUP2 DUP2 MUL SWAP1 POP JUMPDEST SWAP4 SWAP3 POP POP POP JUMP JUMPDEST PUSH1 0x0 PUSH2 0x11A4 DUP3 PUSH2 0xBE6 JUMP JUMPDEST SWAP2 POP PUSH2 0x11AF DUP4 PUSH2 0xC1A JUMP JUMPDEST SWAP3 POP PUSH2 0x11DC PUSH32 0xFFFFFFFFFFFFFFFFFFFFFFFFFFFFFFFFFFFFFFFFFFFFFFFFFFFFFFFFFFFFFFFF DUP5 DUP5 PUSH2 0x10C6 JUMP JUMPDEST SWAP1 POP SWAP3 SWAP2 POP POP JUMP JUMPDEST PUSH1 0x0 PUSH2 0x11EF DUP3 PUSH2 0xBE6 JUMP JUMPDEST SWAP2 POP PUSH2 0x11FA DUP4 PUSH2 0xBE6 JUMP JUMPDEST SWAP3 POP DUP3 DUP3 MUL PUSH2 0x1208 DUP2 PUSH2 0xBE6 JUMP JUMPDEST SWAP2 POP DUP3 DUP3 DIV DUP5 EQ DUP4 ISZERO OR PUSH2 0x121F JUMPI PUSH2 0x121E PUSH2 0xDDE JUMP JUMPDEST JUMPDEST POP SWAP3 SWAP2 POP POP JUMP JUMPDEST PUSH32 0x4E487B7100000000000000000000000000000000000000000000000000000000 PUSH1 0x0 MSTORE PUSH1 0x12 PUSH1 0x4 MSTORE PUSH1 0x24 PUSH1 0x0 REVERT JUMPDEST PUSH1 0x0 PUSH2 0x1260 DUP3 PUSH2 0xBE6 JUMP JUMPDEST SWAP2 POP PUSH2 0x126B DUP4 PUSH2 0xBE6 JUMP JUMPDEST SWAP3 POP DUP3 PUSH2 0x127B JUMPI PUSH2 0x127A PUSH2 0x1226 JUMP JUMPDEST JUMPDEST DUP3 DUP3 DIV SWAP1 POP SWAP3 SWAP2 POP POP JUMP JUMPDEST PUSH32 0x4D757374206275792077697468696E207472616E636865000000000000000000 PUSH1 0x0 DUP3 ADD MSTORE POP JUMP JUMPDEST PUSH1 0x0 PUSH2 0x12BC PUSH1 0x17 DUP4 PUSH2 0xE41 JUMP JUMPDEST SWAP2 POP PUSH2 0x12C7 DUP3 PUSH2 0x1286 JUMP JUMPDEST PUSH1 0x20 DUP3 ADD SWAP1 POP SWAP2 SWAP1 POP JUMP JUMPDEST PUSH1 0x0 PUSH1 0x20 DUP3 ADD SWAP1 POP DUP2 DUP2 SUB PUSH1 0x0 DUP4 ADD MSTORE PUSH2 0x12EB DUP2 PUSH2 0x12AF JUMP JUMPDEST SWAP1 POP SWAP2 SWAP1 POP JUMP JUMPDEST PUSH32 0x496E636F7272656374204554482073656E740000000000000000000000000000 PUSH1 0x0 DUP3 ADD MSTORE POP JUMP JUMPDEST PUSH1 0x0 PUSH2 0x1328 PUSH1 0x12 DUP4 PUSH2 0xE41 JUMP JUMPDEST SWAP2 POP PUSH2 0x1333 DUP3 PUSH2 0x12F2 JUMP JUMPDEST PUSH1 0x20 DUP3 ADD SWAP1 POP SWAP2 SWAP1 POP JUMP JUMPDEST PUSH1 0x0 PUSH1 0x20 DUP3 ADD SWAP1 POP DUP2 DUP2 SUB PUSH1 0x0 DUP4 ADD MSTORE PUSH2 0x1357 DUP2 PUSH2 0x131B JUMP JUMPDEST SWAP1 POP SWAP2 SWAP1 POP JUMP JUMPDEST PUSH32 0x546F6B656E207472616E73666572206661696C65640000000000000000000000 PUSH1 0x0 DUP3 ADD MSTORE POP JUMP JUMPDEST PUSH1 0x0 PUSH2 0x1394 PUSH1 0x15 DUP4 PUSH2 0xE41 JUMP JUMPDEST SWAP2 POP PUSH2 0x139F DUP3 PUSH2 0x135E JUMP JUMPDEST PUSH1 0x20 DUP3 ADD SWAP1 POP SWAP2 SWAP1 POP JUMP JUMPDEST PUSH1 0x0 PUSH1 0x20 DUP3 ADD SWAP1 POP DUP2 DUP2 SUB PUSH1 0x0 DUP4 ADD MSTORE PUSH2 0x13C3 DUP2 PUSH2 0x1387 JUMP JUMPDEST SWAP1 POP SWAP2 SWAP1 POP JUMP INVALID LOG2 PUSH5 0x6970667358 0x22 SLT KECCAK256 GAS 0x27 0x22 0xD5 SMOD PUSH7 0x2206F9A59CBC65 CALL 0x1E PUSH2 0xFF83 SWAP1 0xC7 SWAP13 LOG2 0xA5 SWAP5 0x4F SWAP4 JUMPI 0xF ADD 0xC6 0xF8 DUP6 PUSH5 0x736F6C6343 STOP ADDMOD SHR STOP CALLER "},"methodIdentifiers":{"DURATION()":"1be05289","PCT_FIRST()":"5b39c117","PCT_MAX()":"c86a6138","PRICE1()":"27595a80","PRICE2()":"a1542bd2","buy(uint256)":"d96a094a","endSale()":"380d831b","firstLimit()":"1160bdd3","maxLimit()":"1a861d26","owner()":"8da5cb5b","renounceOwnership()":"715018a6","saleStart()":"ab0bcc41","token()":"fc0c546a","tokenDecimals()":"3b97e856","tokensSold()":"518ab2a8","totalSupply()":"18160ddd","transferOwnership(address)":"f2fde38b"}}}}}