{
  "_format": "hh-sol-artifact-1",
  "contractName": "TokenSale",
  "sourceName": "contracts/TokenSale.sol",
  "abi": [
    {
      "inputs": [
        {
          "internalType": "address",
          "name": "tokenAddress",
          "type": "address"
        }
      ],
      "stateMutability": "nonpayable",
      "type": "constructor"
    },
    {
      "inputs": [
        {
          "internalType": "address",
          "name": "owner",
          "type": "address"
        }
      ],
      "name": "OwnableInvalidOwner",
      "type": "error"
    },
    {
      "inputs": [
        {
          "internalType": "address",
          "name": "account",
          "type": "address"
        }
      ],
      "name": "OwnableUnauthorizedAccount",
      "type": "error"
    },
    {
      "anonymous": false,
      "inputs": [
        {
          "indexed": true,
          "internalType": "address",
          "name": "previousOwner",
          "type": "address"
        },
        {
          "indexed": true,
          "internalType": "address",
          "name": "newOwner",
          "type": "address"
        }
      ],
      "name": "OwnershipTransferred",
      "type": "event"
    },
    {
      "inputs": [],
      "name": "DURATION",
      "outputs": [
        {
          "internalType": "uint256",
          "name": "",
          "type": "uint256"
        }
      ],
      "stateMutability": "view",
      "type": "function"
    },
    {
      "inputs": [],
      "name": "PCT_FIRST",
      "outputs": [
        {
          "internalType": "uint256",
          "name": "",
          "type": "uint256"
        }
      ],
      "stateMutability": "view",
      "type": "function"
    },
    {
      "inputs": [],
      "name": "PCT_MAX",
      "outputs": [
        {
          "internalType": "uint256",
          "name": "",
          "type": "uint256"
        }
      ],
      "stateMutability": "view",
      "type": "function"
    },
    {
      "inputs": [],
      "name": "PRICE1",
      "outputs": [
        {
          "internalType": "uint256",
          "name": "",
          "type": "uint256"
        }
      ],
      "stateMutability": "view",
      "type": "function"
    },
    {
      "inputs": [],
      "name": "PRICE2",
      "outputs": [
        {
          "internalType": "uint256",
          "name": "",
          "type": "uint256"
        }
      ],
      "stateMutability": "view",
      "type": "function"
    },
    {
      "inputs": [
        {
          "internalType": "uint256",
          "name": "amount",
          "type": "uint256"
        }
      ],
      "name": "buy",
      "outputs": [],
      "stateMutability": "payable",
      "type": "function"
    },
    {
      "inputs": [],
      "name": "endSale",
      "outputs": [],
      "stateMutability": "nonpayable",
      "type": "function"
    },
    {
      "inputs": [],
      "name": "firstLimit",
      "outputs": [
        {
          "internalType": "uint256",
          "name": "",
          "type": "uint256"
        }
      ],
      "stateMutability": "view",
      "type": "function"
    },
    {
      "inputs": [],
      "name": "maxLimit",
      "outputs": [
        {
          "internalType": "uint256",
          "name": "",
          "type": "uint256"
        }
      ],
      "stateMutability": "view",
      "type": "function"
    },
    {
      "inputs": [],
      "name": "owner",
      "outputs": [
        {
          "internalType": "address",
          "name": "",
          "type": "address"
        }
      ],
      "stateMutability": "view",
      "type": "function"
    },
    {
      "inputs": [],
      "name": "renounceOwnership",
      "outputs": [],
      "stateMutability": "nonpayable",
      "type": "function"
    },
    {
      "inputs": [],
      "name": "saleStart",
      "outputs": [
        {
          "internalType": "uint256",
          "name": "",
          "type": "uint256"
        }
      ],
      "stateMutability": "view",
      "type": "function"
    },
    {
      "inputs": [],
      "name": "token",
      "outputs": [
        {
          "internalType": "contract IERC20",
          "name": "",
          "type": "address"
        }
      ],
      "stateMutability": "view",
      "type": "function"
    },
    {
      "inputs": [],
      "name": "tokensSold",
      "outputs": [
        {
          "internalType": "uint256",
          "name": "",
          "type": "uint256"
        }
      ],
      "stateMutability": "view",
      "type": "function"
    },
    {
      "inputs": [],
      "name": "totalSupply",
      "outputs": [
        {
          "internalType": "uint256",
          "name": "",
          "type": "uint256"
        }
      ],
      "stateMutability": "view",
      "type": "function"
    },
    {
      "inputs": [
        {
          "internalType": "address",
          "name": "newOwner",
          "type": "address"
        }
      ],
      "name": "transferOwnership",
      "outputs": [],
      "stateMutability": "nonpayable",
      "type": "function"
    }
  ],
  "bytecode": "0x60e060405234801561001057600080fd5b5060405161162538038061162583398181016040528101906100329190610306565b33600073ffffffffffffffffffffffffffffffffffffffff168173ffffffffffffffffffffffffffffffffffffffff16036100a55760006040517f1e4fbdf700000000000000000000000000000000000000000000000000000000815260040161009c9190610342565b60405180910390fd5b6100b4816101df60201b60201c565b5080600160006101000a81548173ffffffffffffffffffffffffffffffffffffffff021916908373ffffffffffffffffffffffffffffffffffffffff16021790555042600381905550600160009054906101000a900473ffffffffffffffffffffffffffffffffffffffff1673ffffffffffffffffffffffffffffffffffffffff166318160ddd6040518163ffffffff1660e01b8152600401602060405180830381865afa15801561016a573d6000803e3d6000fd5b505050506040513d601f19601f8201168201806040525081019061018e9190610393565b60808181525050606460196080516101a691906103ef565b6101b09190610460565b60a08181525050606460326080516101c891906103ef565b6101d29190610460565b60c0818152505050610491565b60008060009054906101000a900473ffffffffffffffffffffffffffffffffffffffff169050816000806101000a81548173ffffffffffffffffffffffffffffffffffffffff021916908373ffffffffffffffffffffffffffffffffffffffff1602179055508173ffffffffffffffffffffffffffffffffffffffff168173ffffffffffffffffffffffffffffffffffffffff167f8be0079c531659141344cd1fd0a4f28419497f9722a3daafe3b4186f6b6457e060405160405180910390a35050565b600080fd5b600073ffffffffffffffffffffffffffffffffffffffff82169050919050565b60006102d3826102a8565b9050919050565b6102e3816102c8565b81146102ee57600080fd5b50565b600081519050610300816102da565b92915050565b60006020828403121561031c5761031b6102a3565b5b600061032a848285016102f1565b91505092915050565b61033c816102c8565b82525050565b60006020820190506103576000830184610333565b92915050565b6000819050919050565b6103708161035d565b811461037b57600080fd5b50565b60008151905061038d81610367565b92915050565b6000602082840312156103a9576103a86102a3565b5b60006103b78482850161037e565b91505092915050565b7f4e487b7100000000000000000000000000000000000000000000000000000000600052601160045260246000fd5b60006103fa8261035d565b91506104058361035d565b92508282026104138161035d565b9150828204841483151761042a576104296103c0565b5b5092915050565b7f4e487b7100000000000000000000000000000000000000000000000000000000600052601260045260246000fd5b600061046b8261035d565b91506104768361035d565b92508261048657610485610431565b5b828204905092915050565b60805160a05160c0516111496104dc600039600081816103b90152818161041101526106cc0152600081816103710152818161073e015261078d0152600061039501526111496000f3fe6080604052600436106100f35760003560e01c8063715018a61161008a578063c86a613811610059578063c86a6138146102d4578063d96a094a146102ff578063f2fde38b1461031b578063fc0c546a14610344576100f3565b8063715018a61461023c5780638da5cb5b14610253578063a1542bd21461027e578063ab0bcc41146102a9576100f3565b806327595a80116100c657806327595a80146101a4578063380d831b146101cf578063518ab2a8146101e65780635b39c11714610211576100f3565b80631160bdd3146100f857806318160ddd146101235780631a861d261461014e5780631be0528914610179575b600080fd5b34801561010457600080fd5b5061010d61036f565b60405161011a9190610b5d565b60405180910390f35b34801561012f57600080fd5b50610138610393565b6040516101459190610b5d565b60405180910390f35b34801561015a57600080fd5b506101636103b7565b6040516101709190610b5d565b60405180910390f35b34801561018557600080fd5b5061018e6103db565b60405161019b9190610b5d565b60405180910390f35b3480156101b057600080fd5b506101b96103e2565b6040516101c69190610b5d565b60405180910390f35b3480156101db57600080fd5b506101e46103ee565b005b3480156101f257600080fd5b506101fb610618565b6040516102089190610b5d565b60405180910390f35b34801561021d57600080fd5b5061022661061e565b6040516102339190610b5d565b60405180910390f35b34801561024857600080fd5b50610251610623565b005b34801561025f57600080fd5b50610268610637565b6040516102759190610bb9565b60405180910390f35b34801561028a57600080fd5b50610293610660565b6040516102a09190610b5d565b60405180910390f35b3480156102b557600080fd5b506102be61066c565b6040516102cb9190610b5d565b60405180910390f35b3480156102e057600080fd5b506102e9610672565b6040516102f69190610b5d565b60405180910390f35b61031960048036038101906103149190610c05565b610677565b005b34801561032757600080fd5b50610342600480360381019061033d9190610c5e565b610945565b005b34801561035057600080fd5b506103596109cb565b6040516103669190610cea565b60405180910390f35b7f000000000000000000000000000000000000000000000000000000000000000081565b7f000000000000000000000000000000000000000000000000000000000000000081565b7f000000000000000000000000000000000000000000000000000000000000000081565b62278d0081565b674563918244f4000081565b6103f66109f1565b62278d006003546104079190610d34565b42118061043657507f000000000000000000000000000000000000000000000000000000000000000060025410155b610475576040517f08c379a000000000000000000000000000000000000000000000000000000000815260040161046c90610dc5565b60405180910390fd5b6000600160009054906101000a900473ffffffffffffffffffffffffffffffffffffffff1673ffffffffffffffffffffffffffffffffffffffff166370a08231306040518263ffffffff1660e01b81526004016104d29190610bb9565b602060405180830381865afa1580156104ef573d6000803e3d6000fd5b505050506040513d601f19601f820116820180604052508101906105139190610dfa565b905060008111156105c757600160009054906101000a900473ffffffffffffffffffffffffffffffffffffffff1673ffffffffffffffffffffffffffffffffffffffff1663a9059cbb610564610637565b836040518363ffffffff1660e01b8152600401610582929190610e27565b6020604051808303816000875af11580156105a1573d6000803e3d6000fd5b505050506040513d601f19601f820116820180604052508101906105c59190610e88565b505b6105cf610637565b73ffffffffffffffffffffffffffffffffffffffff166108fc479081150290604051600060405180830381858888f19350505050158015610614573d6000803e3d6000fd5b5050565b60025481565b601981565b61062b6109f1565b6106356000610a78565b565b60008060009054906101000a900473ffffffffffffffffffffffffffffffffffffffff16905090565b678ac7230489e8000081565b60035481565b603281565b62278d006003546106889190610d34565b4211156106ca576040517f08c379a00000000000000000000000000000000000000000000000000000000081526004016106c190610f01565b60405180910390fd5b7f0000000000000000000000000000000000000000000000000000000000000000816002546106f99190610d34565b111561073a576040517f08c379a000000000000000000000000000000000000000000000000000000000815260040161073190610f6d565b60405180910390fd5b60007f00000000000000000000000000000000000000000000000000000000000000008260025461076b9190610d34565b1161078b5781674563918244f400006107849190610f8d565b9050610807565b7f000000000000000000000000000000000000000000000000000000000000000060025410156107f0576040517f08c379a00000000000000000000000000000000000000000000000000000000081526004016107e79061101b565b60405180910390fd5b81678ac7230489e800006108049190610f8d565b90505b803414610849576040517f08c379a000000000000000000000000000000000000000000000000000000000815260040161084090611087565b60405180910390fd5b816002600082825461085b9190610d34565b92505081905550600160009054906101000a900473ffffffffffffffffffffffffffffffffffffffff1673ffffffffffffffffffffffffffffffffffffffff1663a9059cbb33846040518363ffffffff1660e01b81526004016108bf929190610e27565b6020604051808303816000875af11580156108de573d6000803e3d6000fd5b505050506040513d601f19601f820116820180604052508101906109029190610e88565b610941576040517f08c379a0000000000000000000000000000000000000000000000000000000008152600401610938906110f3565b60405180910390fd5b5050565b61094d6109f1565b600073ffffffffffffffffffffffffffffffffffffffff168173ffffffffffffffffffffffffffffffffffffffff16036109bf5760006040517f1e4fbdf70000000000000000000000000000000000000000000000000000000081526004016109b69190610bb9565b60405180910390fd5b6109c881610a78565b50565b600160009054906101000a900473ffffffffffffffffffffffffffffffffffffffff1681565b6109f9610b3c565b73ffffffffffffffffffffffffffffffffffffffff16610a17610637565b73ffffffffffffffffffffffffffffffffffffffff1614610a7657610a3a610b3c565b6040517f118cdaa7000000000000000000000000000000000000000000000000000000008152600401610a6d9190610bb9565b60405180910390fd5b565b60008060009054906101000a900473ffffffffffffffffffffffffffffffffffffffff169050816000806101000a81548173ffffffffffffffffffffffffffffffffffffffff021916908373ffffffffffffffffffffffffffffffffffffffff1602179055508173ffffffffffffffffffffffffffffffffffffffff168173ffffffffffffffffffffffffffffffffffffffff167f8be0079c531659141344cd1fd0a4f28419497f9722a3daafe3b4186f6b6457e060405160405180910390a35050565b600033905090565b6000819050919050565b610b5781610b44565b82525050565b6000602082019050610b726000830184610b4e565b92915050565b600073ffffffffffffffffffffffffffffffffffffffff82169050919050565b6000610ba382610b78565b9050919050565b610bb381610b98565b82525050565b6000602082019050610bce6000830184610baa565b92915050565b600080fd5b610be281610b44565b8114610bed57600080fd5b50565b600081359050610bff81610bd9565b92915050565b600060208284031215610c1b57610c1a610bd4565b5b6000610c2984828501610bf0565b91505092915050565b610c3b81610b98565b8114610c4657600080fd5b50565b600081359050610c5881610c32565b92915050565b600060208284031215610c7457610c73610bd4565b5b6000610c8284828501610c49565b91505092915050565b6000819050919050565b6000610cb0610cab610ca684610b78565b610c8b565b610b78565b9050919050565b6000610cc282610c95565b9050919050565b6000610cd482610cb7565b9050919050565b610ce481610cc9565b82525050565b6000602082019050610cff6000830184610cdb565b92915050565b7f4e487b7100000000000000000000000000000000000000000000000000000000600052601160045260246000fd5b6000610d3f82610b44565b9150610d4a83610b44565b9250828201905080821115610d6257610d61610d05565b5b92915050565b600082825260208201905092915050565b7f53616c65207374696c6c20616374697665000000000000000000000000000000600082015250565b6000610daf601183610d68565b9150610dba82610d79565b602082019050919050565b60006020820190508181036000830152610dde81610da2565b9050919050565b600081519050610df481610bd9565b92915050565b600060208284031215610e1057610e0f610bd4565b5b6000610e1e84828501610de5565b91505092915050565b6000604082019050610e3c6000830185610baa565b610e496020830184610b4e565b9392505050565b60008115159050919050565b610e6581610e50565b8114610e7057600080fd5b50565b600081519050610e8281610e5c565b92915050565b600060208284031215610e9e57610e9d610bd4565b5b6000610eac84828501610e73565b91505092915050565b7f53616c6520656e64656400000000000000000000000000000000000000000000600082015250565b6000610eeb600a83610d68565b9150610ef682610eb5565b602082019050919050565b60006020820190508181036000830152610f1a81610ede565b9050919050565b7f45786365656473206d61782073616c6500000000000000000000000000000000600082015250565b6000610f57601083610d68565b9150610f6282610f21565b602082019050919050565b60006020820190508181036000830152610f8681610f4a565b9050919050565b6000610f9882610b44565b9150610fa383610b44565b9250828202610fb181610b44565b91508282048414831517610fc857610fc7610d05565b5b5092915050565b7f4d757374206275792077697468696e207472616e636865000000000000000000600082015250565b6000611005601783610d68565b915061101082610fcf565b602082019050919050565b6000602082019050818103600083015261103481610ff8565b9050919050565b7f496e636f7272656374204554482073656e740000000000000000000000000000600082015250565b6000611071601283610d68565b915061107c8261103b565b602082019050919050565b600060208201905081810360008301526110a081611064565b9050919050565b7f546f6b656e207472616e73666572206661696c65640000000000000000000000600082015250565b60006110dd601583610d68565b91506110e8826110a7565b602082019050919050565b6000602082019050818103600083015261110c816110d0565b905091905056fea2646970667358221220b4e27e4f70591ebb9b53dfdf02348de25b4089798c63874257fe13f2f9439c3b64736f6c634300081c0033",
  "linkReferences": {},
  "deployedLinkReferences": {}
}