{
  "_format": "hh-sol-artifact-1",
  "contractName": "TokenSale",
  "sourceName": "contracts/TokenSale.sol",
  "abi": [
    {
      "inputs": [
        {
          "internalType": "address",
          "name": "tokenAddress",
          "type": "address"
        }
      ],
      "stateMutability": "nonpayable",
      "type": "constructor"
    },
    {
      "inputs": [
        {
          "internalType": "address",
          "name": "owner",
          "type": "address"
        }
      ],
      "name": "OwnableInvalidOwner",
      "type": "error"
    },
    {
      "inputs": [
        {
          "internalType": "address",
          "name": "account",
          "type": "address"
        }
      ],
      "name": "OwnableUnauthorizedAccount",
      "type": "error"
    },
    {
      "anonymous": false,
      "inputs": [
        {
          "indexed": true,
          "internalType": "address",
          "name": "previousOwner",
          "type": "address"
        },
        {
          "indexed": true,
          "internalType": "address",
          "name": "newOwner",
          "type": "address"
        }
      ],
      "name": "OwnershipTransferred",
      "type": "event"
    },
    {
      "inputs": [],
      "name": "DURATION",
      "outputs": [
        {
          "internalType": "uint256",
          "name": "",
          "type": "uint256"
        }
      ],
      "stateMutability": "view",
      "type": "function"
    },
    {
      "inputs": [],
      "name": "PCT_FIRST",
      "outputs": [
        {
          "internalType": "uint256",
          "name": "",
          "type": "uint256"
        }
      ],
      "stateMutability": "view",
      "type": "function"
    },
    {
      "inputs": [],
      "name": "PCT_MAX",
      "outputs": [
        {
          "internalType": "uint256",
          "name": "",
          "type": "uint256"
        }
      ],
      "stateMutability": "view",
      "type": "function"
    },
    {
      "inputs": [],
      "name": "PRICE1",
      "outputs": [
        {
          "internalType": "uint256",
          "name": "",
          "type": "uint256"
        }
      ],
      "stateMutability": "view",
      "type": "function"
    },
    {
      "inputs": [],
      "name": "PRICE2",
      "outputs": [
        {
          "internalType": "uint256",
          "name": "",
          "type": "uint256"
        }
      ],
      "stateMutability": "view",
      "type": "function"
    },
    {
      "inputs": [
        {
          "internalType": "uint256",
          "name": "amount",
          "type": "uint256"
        }
      ],
      "name": "buy",
      "outputs": [],
      "stateMutability": "payable",
      "type": "function"
    },
    {
      "inputs": [],
      "name": "endSale",
      "outputs": [],
      "stateMutability": "nonpayable",
      "type": "function"
    },
    {
      "inputs": [],
      "name": "firstLimit",
      "outputs": [
        {
          "internalType": "uint256",
          "name": "",
          "type": "uint256"
        }
      ],
      "stateMutability": "view",
      "type": "function"
    },
    {
      "inputs": [],
      "name": "maxLimit",
      "outputs": [
        {
          "internalType": "uint256",
          "name": "",
          "type": "uint256"
        }
      ],
      "stateMutability": "view",
      "type": "function"
    },
    {
      "inputs": [],
      "name": "owner",
      "outputs": [
        {
          "internalType": "address",
          "name": "",
          "type": "address"
        }
      ],
      "stateMutability": "view",
      "type": "function"
    },
    {
      "inputs": [],
      "name": "renounceOwnership",
      "outputs": [],
      "stateMutability": "nonpayable",
      "type": "function"
    },
    {
      "inputs": [],
      "name": "saleStart",
      "outputs": [
        {
          "internalType": "uint256",
          "name": "",
          "type": "uint256"
        }
      ],
      "stateMutability": "view",
      "type": "function"
    },
    {
      "inputs": [],
      "name": "token",
      "outputs": [
        {
          "internalType": "contract ERC20",
          "name": "",
          "type": "address"
        }
      ],
      "stateMutability": "view",
      "type": "function"
    },
    {
      "inputs": [],
      "name": "tokenDecimals",
      "outputs": [
        {
          "internalType": "uint8",
          "name": "",
          "type": "uint8"
        }
      ],
      "stateMutability": "view",
      "type": "function"
    },
    {
      "inputs": [],
      "name": "tokensSold",
      "outputs": [
        {
          "internalType": "uint256",
          "name": "",
          "type": "uint256"
        }
      ],
      "stateMutability": "view",
      "type": "function"
    },
    {
      "inputs": [],
      "name": "totalSupply",
      "outputs": [
        {
          "internalType": "uint256",
          "name": "",
          "type": "uint256"
        }
      ],
      "stateMutability": "view",
      "type": "function"
    },
    {
      "inputs": [
        {
          "internalType": "address",
          "name": "newOwner",
          "type": "address"
        }
      ],
      "name": "transferOwnership",
      "outputs": [],
      "stateMutability": "nonpayable",
      "type": "function"
    }
  ],
  "bytecode": "0x61010060405234801561001157600080fd5b506040516119f23803806119f2833981810160405281019061003391906103a5565b33600073ffffffffffffffffffffffffffffffffffffffff168173ffffffffffffffffffffffffffffffffffffffff16036100a65760006040517f1e4fbdf700000000000000000000000000000000000000000000000000000000815260040161009d91906103e1565b60405180910390fd5b6100b58161027e60201b60201c565b5080600160006101000a81548173ffffffffffffffffffffffffffffffffffffffff021916908373ffffffffffffffffffffffffffffffffffffffff16021790555042600381905550600160009054906101000a900473ffffffffffffffffffffffffffffffffffffffff1673ffffffffffffffffffffffffffffffffffffffff166318160ddd6040518163ffffffff1660e01b8152600401602060405180830381865afa15801561016b573d6000803e3d6000fd5b505050506040513d601f19601f8201168201806040525081019061018f9190610432565b60808181525050606460196080516101a7919061048e565b6101b191906104ff565b60a08181525050606460326080516101c9919061048e565b6101d391906104ff565b60c08181525050600160009054906101000a900473ffffffffffffffffffffffffffffffffffffffff1673ffffffffffffffffffffffffffffffffffffffff1663313ce5676040518163ffffffff1660e01b8152600401602060405180830381865afa158015610247573d6000803e3d6000fd5b505050506040513d601f19601f8201168201806040525081019061026b9190610569565b60ff1660e08160ff168152505050610596565b60008060009054906101000a900473ffffffffffffffffffffffffffffffffffffffff169050816000806101000a81548173ffffffffffffffffffffffffffffffffffffffff021916908373ffffffffffffffffffffffffffffffffffffffff1602179055508173ffffffffffffffffffffffffffffffffffffffff168173ffffffffffffffffffffffffffffffffffffffff167f8be0079c531659141344cd1fd0a4f28419497f9722a3daafe3b4186f6b6457e060405160405180910390a35050565b600080fd5b600073ffffffffffffffffffffffffffffffffffffffff82169050919050565b600061037282610347565b9050919050565b61038281610367565b811461038d57600080fd5b50565b60008151905061039f81610379565b92915050565b6000602082840312156103bb576103ba610342565b5b60006103c984828501610390565b91505092915050565b6103db81610367565b82525050565b60006020820190506103f660008301846103d2565b92915050565b6000819050919050565b61040f816103fc565b811461041a57600080fd5b50565b60008151905061042c81610406565b92915050565b60006020828403121561044857610447610342565b5b60006104568482850161041d565b91505092915050565b7f4e487b7100000000000000000000000000000000000000000000000000000000600052601160045260246000fd5b6000610499826103fc565b91506104a4836103fc565b92508282026104b2816103fc565b915082820484148315176104c9576104c861045f565b5b5092915050565b7f4e487b7100000000000000000000000000000000000000000000000000000000600052601260045260246000fd5b600061050a826103fc565b9150610515836103fc565b925082610525576105246104d0565b5b828204905092915050565b600060ff82169050919050565b61054681610530565b811461055157600080fd5b50565b6000815190506105638161053d565b92915050565b60006020828403121561057f5761057e610342565b5b600061058d84828501610554565b91505092915050565b60805160a05160c05160e0516114006105f26000396000818161065001526107980152600081816103ef0152818161044701526107260152600081816103a7015281816107c90152610823015260006103cb01526114006000f3fe6080604052600436106100fe5760003560e01c80635b39c11711610095578063ab0bcc4111610064578063ab0bcc41146102df578063c86a61381461030a578063d96a094a14610335578063f2fde38b14610351578063fc0c546a1461037a576100fe565b80635b39c11714610247578063715018a6146102725780638da5cb5b14610289578063a1542bd2146102b4576100fe565b806327595a80116100d157806327595a80146101af578063380d831b146101da5780633b97e856146101f1578063518ab2a81461021c576100fe565b80631160bdd31461010357806318160ddd1461012e5780631a861d26146101595780631be0528914610184575b600080fd5b34801561010f57600080fd5b506101186103a5565b6040516101259190610bff565b60405180910390f35b34801561013a57600080fd5b506101436103c9565b6040516101509190610bff565b60405180910390f35b34801561016557600080fd5b5061016e6103ed565b60405161017b9190610bff565b60405180910390f35b34801561019057600080fd5b50610199610411565b6040516101a69190610bff565b60405180910390f35b3480156101bb57600080fd5b506101c4610418565b6040516101d19190610bff565b60405180910390f35b3480156101e657600080fd5b506101ef610424565b005b3480156101fd57600080fd5b5061020661064e565b6040516102139190610c36565b60405180910390f35b34801561022857600080fd5b50610231610672565b60405161023e9190610bff565b60405180910390f35b34801561025357600080fd5b5061025c610678565b6040516102699190610bff565b60405180910390f35b34801561027e57600080fd5b5061028761067d565b005b34801561029557600080fd5b5061029e610691565b6040516102ab9190610c92565b60405180910390f35b3480156102c057600080fd5b506102c96106ba565b6040516102d69190610bff565b60405180910390f35b3480156102eb57600080fd5b506102f46106c6565b6040516103019190610bff565b60405180910390f35b34801561031657600080fd5b5061031f6106cc565b60405161032c9190610bff565b60405180910390f35b61034f600480360381019061034a9190610cde565b6106d1565b005b34801561035d57600080fd5b5061037860048036038101906103739190610d37565b6109e7565b005b34801561038657600080fd5b5061038f610a6d565b60405161039c9190610dc3565b60405180910390f35b7f000000000000000000000000000000000000000000000000000000000000000081565b7f000000000000000000000000000000000000000000000000000000000000000081565b7f000000000000000000000000000000000000000000000000000000000000000081565b62278d0081565b674563918244f4000081565b61042c610a93565b62278d0060035461043d9190610e0d565b42118061046c57507f000000000000000000000000000000000000000000000000000000000000000060025410155b6104ab576040517f08c379a00000000000000000000000000000000000000000000000000000000081526004016104a290610e9e565b60405180910390fd5b6000600160009054906101000a900473ffffffffffffffffffffffffffffffffffffffff1673ffffffffffffffffffffffffffffffffffffffff166370a08231306040518263ffffffff1660e01b81526004016105089190610c92565b602060405180830381865afa158015610525573d6000803e3d6000fd5b505050506040513d601f19601f820116820180604052508101906105499190610ed3565b905060008111156105fd57600160009054906101000a900473ffffffffffffffffffffffffffffffffffffffff1673ffffffffffffffffffffffffffffffffffffffff1663a9059cbb61059a610691565b836040518363ffffffff1660e01b81526004016105b8929190610f00565b6020604051808303816000875af11580156105d7573d6000803e3d6000fd5b505050506040513d601f19601f820116820180604052508101906105fb9190610f61565b505b610605610691565b73ffffffffffffffffffffffffffffffffffffffff166108fc479081150290604051600060405180830381858888f1935050505015801561064a573d6000803e3d6000fd5b5050565b7f000000000000000000000000000000000000000000000000000000000000000081565b60025481565b601981565b610685610a93565b61068f6000610b1a565b565b60008060009054906101000a900473ffffffffffffffffffffffffffffffffffffffff16905090565b678ac7230489e8000081565b60035481565b603281565b62278d006003546106e29190610e0d565b421115610724576040517f08c379a000000000000000000000000000000000000000000000000000000000815260040161071b90610fda565b60405180910390fd5b7f0000000000000000000000000000000000000000000000000000000000000000816002546107539190610e0d565b1115610794576040517f08c379a000000000000000000000000000000000000000000000000000000000815260040161078b90611046565b60405180910390fd5b60007f0000000000000000000000000000000000000000000000000000000000000000600a6107c39190611199565b905060007f0000000000000000000000000000000000000000000000000000000000000000836002546107f69190610e0d565b11610821578183674563918244f4000061081091906111e4565b61081a9190611255565b90506108a8565b7f00000000000000000000000000000000000000000000000000000000000000006002541015610886576040517f08c379a000000000000000000000000000000000000000000000000000000000815260040161087d906112d2565b60405180910390fd5b8183678ac7230489e8000061089b91906111e4565b6108a59190611255565b90505b8034146108ea576040517f08c379a00000000000000000000000000000000000000000000000000000000081526004016108e19061133e565b60405180910390fd5b82600260008282546108fc9190610e0d565b92505081905550600160009054906101000a900473ffffffffffffffffffffffffffffffffffffffff1673ffffffffffffffffffffffffffffffffffffffff1663a9059cbb33856040518363ffffffff1660e01b8152600401610960929190610f00565b6020604051808303816000875af115801561097f573d6000803e3d6000fd5b505050506040513d601f19601f820116820180604052508101906109a39190610f61565b6109e2576040517f08c379a00000000000000000000000000000000000000000000000000000000081526004016109d9906113aa565b60405180910390fd5b505050565b6109ef610a93565b600073ffffffffffffffffffffffffffffffffffffffff168173ffffffffffffffffffffffffffffffffffffffff1603610a615760006040517f1e4fbdf7000000000000000000000000000000000000000000000000000000008152600401610a589190610c92565b60405180910390fd5b610a6a81610b1a565b50565b600160009054906101000a900473ffffffffffffffffffffffffffffffffffffffff1681565b610a9b610bde565b73ffffffffffffffffffffffffffffffffffffffff16610ab9610691565b73ffffffffffffffffffffffffffffffffffffffff1614610b1857610adc610bde565b6040517f118cdaa7000000000000000000000000000000000000000000000000000000008152600401610b0f9190610c92565b60405180910390fd5b565b60008060009054906101000a900473ffffffffffffffffffffffffffffffffffffffff169050816000806101000a81548173ffffffffffffffffffffffffffffffffffffffff021916908373ffffffffffffffffffffffffffffffffffffffff1602179055508173ffffffffffffffffffffffffffffffffffffffff168173ffffffffffffffffffffffffffffffffffffffff167f8be0079c531659141344cd1fd0a4f28419497f9722a3daafe3b4186f6b6457e060405160405180910390a35050565b600033905090565b6000819050919050565b610bf981610be6565b82525050565b6000602082019050610c146000830184610bf0565b92915050565b600060ff82169050919050565b610c3081610c1a565b82525050565b6000602082019050610c4b6000830184610c27565b92915050565b600073ffffffffffffffffffffffffffffffffffffffff82169050919050565b6000610c7c82610c51565b9050919050565b610c8c81610c71565b82525050565b6000602082019050610ca76000830184610c83565b92915050565b600080fd5b610cbb81610be6565b8114610cc657600080fd5b50565b600081359050610cd881610cb2565b92915050565b600060208284031215610cf457610cf3610cad565b5b6000610d0284828501610cc9565b91505092915050565b610d1481610c71565b8114610d1f57600080fd5b50565b600081359050610d3181610d0b565b92915050565b600060208284031215610d4d57610d4c610cad565b5b6000610d5b84828501610d22565b91505092915050565b6000819050919050565b6000610d89610d84610d7f84610c51565b610d64565b610c51565b9050919050565b6000610d9b82610d6e565b9050919050565b6000610dad82610d90565b9050919050565b610dbd81610da2565b82525050565b6000602082019050610dd86000830184610db4565b92915050565b7f4e487b7100000000000000000000000000000000000000000000000000000000600052601160045260246000fd5b6000610e1882610be6565b9150610e2383610be6565b9250828201905080821115610e3b57610e3a610dde565b5b92915050565b600082825260208201905092915050565b7f53616c65207374696c6c20616374697665000000000000000000000000000000600082015250565b6000610e88601183610e41565b9150610e9382610e52565b602082019050919050565b60006020820190508181036000830152610eb781610e7b565b9050919050565b600081519050610ecd81610cb2565b92915050565b600060208284031215610ee957610ee8610cad565b5b6000610ef784828501610ebe565b91505092915050565b6000604082019050610f156000830185610c83565b610f226020830184610bf0565b9392505050565b60008115159050919050565b610f3e81610f29565b8114610f4957600080fd5b50565b600081519050610f5b81610f35565b92915050565b600060208284031215610f7757610f76610cad565b5b6000610f8584828501610f4c565b91505092915050565b7f53616c6520656e64656400000000000000000000000000000000000000000000600082015250565b6000610fc4600a83610e41565b9150610fcf82610f8e565b602082019050919050565b60006020820190508181036000830152610ff381610fb7565b9050919050565b7f45786365656473206d61782073616c6500000000000000000000000000000000600082015250565b6000611030601083610e41565b915061103b82610ffa565b602082019050919050565b6000602082019050818103600083015261105f81611023565b9050919050565b60008160011c9050919050565b6000808291508390505b60018511156110bd5780860481111561109957611098610dde565b5b60018516156110a85780820291505b80810290506110b685611066565b945061107d565b94509492505050565b6000826110d65760019050611192565b816110e45760009050611192565b81600181146110fa576002811461110457611133565b6001915050611192565b60ff84111561111657611115610dde565b5b8360020a91508482111561112d5761112c610dde565b5b50611192565b5060208310610133831016604e8410600b84101617156111685782820a90508381111561116357611162610dde565b5b611192565b6111758484846001611073565b9250905081840481111561118c5761118b610dde565b5b81810290505b9392505050565b60006111a482610be6565b91506111af83610c1a565b92506111dc7fffffffffffffffffffffffffffffffffffffffffffffffffffffffffffffffff84846110c6565b905092915050565b60006111ef82610be6565b91506111fa83610be6565b925082820261120881610be6565b9150828204841483151761121f5761121e610dde565b5b5092915050565b7f4e487b7100000000000000000000000000000000000000000000000000000000600052601260045260246000fd5b600061126082610be6565b915061126b83610be6565b92508261127b5761127a611226565b5b828204905092915050565b7f4d757374206275792077697468696e207472616e636865000000000000000000600082015250565b60006112bc601783610e41565b91506112c782611286565b602082019050919050565b600060208201905081810360008301526112eb816112af565b9050919050565b7f496e636f7272656374204554482073656e740000000000000000000000000000600082015250565b6000611328601283610e41565b9150611333826112f2565b602082019050919050565b600060208201905081810360008301526113578161131b565b9050919050565b7f546f6b656e207472616e73666572206661696c65640000000000000000000000600082015250565b6000611394601583610e41565b915061139f8261135e565b602082019050919050565b600060208201905081810360008301526113c381611387565b905091905056fea26469706673582212205a2722d507662206f9a59cbc65f11e61ff8390c79ca2a5944f93570f01c6f88564736f6c634300081c0033",
  "linkReferences": {},
  "deployedLinkReferences": {}
}